{
  "contractName": "Implementation",
  "abi": [
    {
      "anonymous": false,
      "inputs": [
        {
          "indexed": true,
          "internalType": "uint256",
          "name": "epoch",
          "type": "uint256"
        },
        {
          "indexed": false,
          "internalType": "uint256",
          "name": "block",
          "type": "uint256"
        },
        {
          "indexed": false,
          "internalType": "uint256",
          "name": "timestamp",
          "type": "uint256"
        }
      ],
      "name": "Advance",
      "type": "event"
    },
    {
      "anonymous": false,
      "inputs": [
        {
          "indexed": true,
          "internalType": "address",
          "name": "account",
          "type": "address"
        },
        {
          "indexed": false,
          "internalType": "uint256",
          "name": "start",
          "type": "uint256"
        },
        {
          "indexed": false,
          "internalType": "uint256",
          "name": "value",
          "type": "uint256"
        },
        {
          "indexed": false,
          "internalType": "uint256",
          "name": "valueUnderlying",
          "type": "uint256"
        }
      ],
      "name": "Bond",
      "type": "event"
    },
    {
      "anonymous": false,
      "inputs": [
        {
          "indexed": true,
          "internalType": "address",
          "name": "account",
          "type": "address"
        },
        {
          "indexed": true,
          "internalType": "address",
          "name": "candidate",
          "type": "address"
        }
      ],
      "name": "Commit",
      "type": "event"
    },
    {
      "anonymous": false,
      "inputs": [
        {
          "indexed": true,
          "internalType": "address",
          "name": "owner",
          "type": "address"
        },
        {
          "indexed": true,
          "internalType": "address",
          "name": "spender",
          "type": "address"
        },
        {
          "indexed": false,
          "internalType": "uint256",
          "name": "value",
          "type": "uint256"
        }
      ],
      "name": "CouponApproval",
      "type": "event"
    },
    {
      "anonymous": false,
      "inputs": [
        {
          "indexed": true,
          "internalType": "uint256",
          "name": "epoch",
          "type": "uint256"
        },
        {
          "indexed": false,
          "internalType": "uint256",
          "name": "couponsExpired",
          "type": "uint256"
        },
        {
          "indexed": false,
          "internalType": "uint256",
          "name": "lessRedeemable",
          "type": "uint256"
        },
        {
          "indexed": false,
          "internalType": "uint256",
          "name": "lessDebt",
          "type": "uint256"
        },
        {
          "indexed": false,
          "internalType": "uint256",
          "name": "newBonded",
          "type": "uint256"
        }
      ],
      "name": "CouponExpiration",
      "type": "event"
    },
    {
      "anonymous": false,
      "inputs": [
        {
          "indexed": true,
          "internalType": "address",
          "name": "account",
          "type": "address"
        },
        {
          "indexed": true,
          "internalType": "uint256",
          "name": "epoch",
          "type": "uint256"
        },
        {
          "indexed": false,
          "internalType": "uint256",
          "name": "bitcoinAmount",
          "type": "uint256"
        },
        {
          "indexed": false,
          "internalType": "uint256",
          "name": "couponAmount",
          "type": "uint256"
        }
      ],
      "name": "CouponPurchase",
      "type": "event"
    },
    {
      "anonymous": false,
      "inputs": [
        {
          "indexed": true,
          "internalType": "address",
          "name": "account",
          "type": "address"
        },
        {
          "indexed": true,
          "internalType": "uint256",
          "name": "epoch",
          "type": "uint256"
        },
        {
          "indexed": false,
          "internalType": "uint256",
          "name": "couponAmount",
          "type": "uint256"
        }
      ],
      "name": "CouponRedemption",
      "type": "event"
    },
    {
      "anonymous": false,
      "inputs": [
        {
          "indexed": true,
          "internalType": "address",
          "name": "from",
          "type": "address"
        },
        {
          "indexed": true,
          "internalType": "address",
          "name": "to",
          "type": "address"
        },
        {
          "indexed": true,
          "internalType": "uint256",
          "name": "epoch",
          "type": "uint256"
        },
        {
          "indexed": false,
          "internalType": "uint256",
          "name": "value",
          "type": "uint256"
        }
      ],
      "name": "CouponTransfer",
      "type": "event"
    },
    {
      "anonymous": false,
      "inputs": [
        {
          "indexed": true,
          "internalType": "address",
          "name": "account",
          "type": "address"
        },
        {
          "indexed": false,
          "internalType": "uint256",
          "name": "value",
          "type": "uint256"
        }
      ],
      "name": "Deposit",
      "type": "event"
    },
    {
      "anonymous": false,
      "inputs": [
        {
          "indexed": true,
          "internalType": "address",
          "name": "account",
          "type": "address"
        },
        {
          "indexed": false,
          "internalType": "uint256",
          "name": "amount",
          "type": "uint256"
        }
      ],
      "name": "Incentivization",
      "type": "event"
    },
    {
      "anonymous": false,
      "inputs": [
        {
          "indexed": true,
          "internalType": "address",
          "name": "candidate",
          "type": "address"
        },
        {
          "indexed": true,
          "internalType": "address",
          "name": "account",
          "type": "address"
        },
        {
          "indexed": true,
          "internalType": "uint256",
          "name": "start",
          "type": "uint256"
        },
        {
          "indexed": false,
          "internalType": "uint256",
          "name": "period",
          "type": "uint256"
        }
      ],
      "name": "Proposal",
      "type": "event"
    },
    {
      "anonymous": false,
      "inputs": [
        {
          "indexed": true,
          "internalType": "uint256",
          "name": "epoch",
          "type": "uint256"
        },
        {
          "indexed": false,
          "internalType": "uint256",
          "name": "price",
          "type": "uint256"
        },
        {
          "indexed": false,
          "internalType": "uint256",
          "name": "newDebt",
          "type": "uint256"
        }
      ],
      "name": "SupplyDecrease",
      "type": "event"
    },
    {
      "anonymous": false,
      "inputs": [
        {
          "indexed": true,
          "internalType": "uint256",
          "name": "epoch",
          "type": "uint256"
        },
        {
          "indexed": false,
          "internalType": "uint256",
          "name": "price",
          "type": "uint256"
        },
        {
          "indexed": false,
          "internalType": "uint256",
          "name": "newRedeemable",
          "type": "uint256"
        },
        {
          "indexed": false,
          "internalType": "uint256",
          "name": "lessDebt",
          "type": "uint256"
        },
        {
          "indexed": false,
          "internalType": "uint256",
          "name": "newBonded",
          "type": "uint256"
        }
      ],
      "name": "SupplyIncrease",
      "type": "event"
    },
    {
      "anonymous": false,
      "inputs": [
        {
          "indexed": true,
          "internalType": "uint256",
          "name": "epoch",
          "type": "uint256"
        }
      ],
      "name": "SupplyNeutral",
      "type": "event"
    },
    {
      "anonymous": false,
      "inputs": [
        {
          "indexed": true,
          "internalType": "address",
          "name": "from",
          "type": "address"
        },
        {
          "indexed": true,
          "internalType": "address",
          "name": "to",
          "type": "address"
        },
        {
          "indexed": false,
          "internalType": "uint256",
          "name": "value",
          "type": "uint256"
        }
      ],
      "name": "Transfer",
      "type": "event"
    },
    {
      "anonymous": false,
      "inputs": [
        {
          "indexed": true,
          "internalType": "address",
          "name": "account",
          "type": "address"
        },
        {
          "indexed": false,
          "internalType": "uint256",
          "name": "start",
          "type": "uint256"
        },
        {
          "indexed": false,
          "internalType": "uint256",
          "name": "value",
          "type": "uint256"
        },
        {
          "indexed": false,
          "internalType": "uint256",
          "name": "valueUnderlying",
          "type": "uint256"
        }
      ],
      "name": "Unbond",
      "type": "event"
    },
    {
      "anonymous": false,
      "inputs": [
        {
          "indexed": true,
          "internalType": "address",
          "name": "implementation",
          "type": "address"
        }
      ],
      "name": "Upgraded",
      "type": "event"
    },
    {
      "anonymous": false,
      "inputs": [
        {
          "indexed": true,
          "internalType": "address",
          "name": "account",
          "type": "address"
        },
        {
          "indexed": true,
          "internalType": "address",
          "name": "candidate",
          "type": "address"
        },
        {
          "indexed": false,
          "internalType": "enum Candidate.Vote",
          "name": "vote",
          "type": "uint8"
        },
        {
          "indexed": false,
          "internalType": "uint256",
          "name": "bonded",
          "type": "uint256"
        }
      ],
      "name": "Vote",
      "type": "event"
    },
    {
      "anonymous": false,
      "inputs": [
        {
          "indexed": true,
          "internalType": "address",
          "name": "account",
          "type": "address"
        },
        {
          "indexed": false,
          "internalType": "uint256",
          "name": "value",
          "type": "uint256"
        }
      ],
      "name": "Withdraw",
      "type": "event"
    },
    {
      "constant": true,
      "inputs": [
        {
          "internalType": "address",
          "name": "owner",
          "type": "address"
        },
        {
          "internalType": "address",
          "name": "spender",
          "type": "address"
        }
      ],
      "name": "allowance",
      "outputs": [
        {
          "internalType": "uint256",
          "name": "",
          "type": "uint256"
        }
      ],
      "payable": false,
      "stateMutability": "view",
      "type": "function"
    },
    {
      "constant": true,
      "inputs": [
        {
          "internalType": "address",
          "name": "owner",
          "type": "address"
        },
        {
          "internalType": "address",
          "name": "spender",
          "type": "address"
        }
      ],
      "name": "allowanceCoupons",
      "outputs": [
        {
          "internalType": "uint256",
          "name": "",
          "type": "uint256"
        }
      ],
      "payable": false,
      "stateMutability": "view",
      "type": "function"
    },
    {
      "constant": false,
      "inputs": [
        {
          "internalType": "address",
          "name": "spender",
          "type": "address"
        },
        {
          "internalType": "uint256",
          "name": "amount",
          "type": "uint256"
        }
      ],
      "name": "approve",
      "outputs": [
        {
          "internalType": "bool",
          "name": "",
          "type": "bool"
        }
      ],
      "payable": false,
      "stateMutability": "nonpayable",
      "type": "function"
    },
    {
      "constant": false,
      "inputs": [
        {
          "internalType": "address",
          "name": "spender",
          "type": "address"
        },
        {
          "internalType": "uint256",
          "name": "amount",
          "type": "uint256"
        }
      ],
      "name": "approveCoupons",
      "outputs": [],
      "payable": false,
      "stateMutability": "nonpayable",
      "type": "function"
    },
    {
      "constant": true,
      "inputs": [
        {
          "internalType": "address",
          "name": "candidate",
          "type": "address"
        }
      ],
      "name": "approveFor",
      "outputs": [
        {
          "internalType": "uint256",
          "name": "",
          "type": "uint256"
        }
      ],
      "payable": false,
      "stateMutability": "view",
      "type": "function"
    },
    {
      "constant": true,
      "inputs": [
        {
          "internalType": "address",
          "name": "account",
          "type": "address"
        }
      ],
      "name": "balanceOf",
      "outputs": [
        {
          "internalType": "uint256",
          "name": "",
          "type": "uint256"
        }
      ],
      "payable": false,
      "stateMutability": "view",
      "type": "function"
    },
    {
      "constant": true,
      "inputs": [
        {
          "internalType": "address",
          "name": "account",
          "type": "address"
        }
      ],
      "name": "balanceOfBonded",
      "outputs": [
        {
          "internalType": "uint256",
          "name": "",
          "type": "uint256"
        }
      ],
      "payable": false,
      "stateMutability": "view",
      "type": "function"
    },
    {
      "constant": true,
      "inputs": [
        {
          "internalType": "address",
          "name": "account",
          "type": "address"
        },
        {
          "internalType": "uint256",
          "name": "epoch",
          "type": "uint256"
        }
      ],
      "name": "balanceOfCoupons",
      "outputs": [
        {
          "internalType": "uint256",
          "name": "",
          "type": "uint256"
        }
      ],
      "payable": false,
      "stateMutability": "view",
      "type": "function"
    },
    {
      "constant": true,
      "inputs": [
        {
          "internalType": "address",
          "name": "account",
          "type": "address"
        }
      ],
      "name": "balanceOfStaged",
      "outputs": [
        {
          "internalType": "uint256",
          "name": "",
          "type": "uint256"
        }
      ],
      "payable": false,
      "stateMutability": "view",
      "type": "function"
    },
    {
      "constant": true,
      "inputs": [],
      "name": "bitcoin",
      "outputs": [
        {
          "internalType": "contract IBitcoin",
          "name": "",
          "type": "address"
        }
      ],
      "payable": false,
      "stateMutability": "view",
      "type": "function"
    },
    {
      "constant": false,
      "inputs": [
        {
          "internalType": "uint256",
          "name": "value",
          "type": "uint256"
        }
      ],
      "name": "bond",
      "outputs": [],
      "payable": false,
      "stateMutability": "nonpayable",
      "type": "function"
    },
    {
      "constant": true,
      "inputs": [
        {
          "internalType": "uint256",
          "name": "epoch",
          "type": "uint256"
        }
      ],
      "name": "bootstrappingAt",
      "outputs": [
        {
          "internalType": "bool",
          "name": "",
          "type": "bool"
        }
      ],
      "payable": false,
      "stateMutability": "view",
      "type": "function"
    },
    {
      "constant": false,
      "inputs": [
        {
          "internalType": "address",
          "name": "candidate",
          "type": "address"
        }
      ],
      "name": "commit",
      "outputs": [],
      "payable": false,
      "stateMutability": "nonpayable",
      "type": "function"
    },
    {
      "constant": true,
      "inputs": [
        {
          "internalType": "uint256",
          "name": "amount",
          "type": "uint256"
        }
      ],
      "name": "couponPremium",
      "outputs": [
        {
          "internalType": "uint256",
          "name": "",
          "type": "uint256"
        }
      ],
      "payable": false,
      "stateMutability": "view",
      "type": "function"
    },
    {
      "constant": true,
      "inputs": [
        {
          "internalType": "uint256",
          "name": "epoch",
          "type": "uint256"
        }
      ],
      "name": "couponsExpiration",
      "outputs": [
        {
          "internalType": "uint256",
          "name": "",
          "type": "uint256"
        }
      ],
      "payable": false,
      "stateMutability": "view",
      "type": "function"
    },
    {
      "constant": true,
      "inputs": [],
      "name": "decimals",
      "outputs": [
        {
          "internalType": "uint8",
          "name": "",
          "type": "uint8"
        }
      ],
      "payable": false,
      "stateMutability": "view",
      "type": "function"
    },
    {
      "constant": false,
      "inputs": [
        {
          "internalType": "uint256",
          "name": "value",
          "type": "uint256"
        }
      ],
      "name": "deposit",
      "outputs": [],
      "payable": false,
      "stateMutability": "nonpayable",
      "type": "function"
    },
    {
      "constant": false,
      "inputs": [
        {
          "internalType": "address",
          "name": "candidate",
          "type": "address"
        }
      ],
      "name": "emergencyCommit",
      "outputs": [],
      "payable": false,
      "stateMutability": "nonpayable",
      "type": "function"
    },
    {
      "constant": true,
      "inputs": [],
      "name": "epoch",
      "outputs": [
        {
          "internalType": "uint256",
          "name": "",
          "type": "uint256"
        }
      ],
      "payable": false,
      "stateMutability": "view",
      "type": "function"
    },
    {
      "constant": true,
      "inputs": [],
      "name": "epochTime",
      "outputs": [
        {
          "internalType": "uint256",
          "name": "",
          "type": "uint256"
        }
      ],
      "payable": false,
      "stateMutability": "view",
      "type": "function"
    },
    {
      "constant": true,
      "inputs": [
        {
          "internalType": "uint256",
          "name": "epoch",
          "type": "uint256"
        }
      ],
      "name": "expiringCoupons",
      "outputs": [
        {
          "internalType": "uint256",
          "name": "",
          "type": "uint256"
        }
      ],
      "payable": false,
      "stateMutability": "view",
      "type": "function"
    },
    {
      "constant": true,
      "inputs": [
        {
          "internalType": "uint256",
          "name": "epoch",
          "type": "uint256"
        },
        {
          "internalType": "uint256",
          "name": "i",
          "type": "uint256"
        }
      ],
      "name": "expiringCouponsAtIndex",
      "outputs": [
        {
          "internalType": "uint256",
          "name": "",
          "type": "uint256"
        }
      ],
      "payable": false,
      "stateMutability": "view",
      "type": "function"
    },
    {
      "constant": true,
      "inputs": [
        {
          "internalType": "address",
          "name": "account",
          "type": "address"
        }
      ],
      "name": "fluidUntil",
      "outputs": [
        {
          "internalType": "uint256",
          "name": "",
          "type": "uint256"
        }
      ],
      "payable": false,
      "stateMutability": "view",
      "type": "function"
    },
    {
      "constant": true,
      "inputs": [],
      "name": "implementation",
      "outputs": [
        {
          "internalType": "address",
          "name": "impl",
          "type": "address"
        }
      ],
      "payable": false,
      "stateMutability": "view",
      "type": "function"
    },
    {
      "constant": true,
      "inputs": [
        {
          "internalType": "address",
          "name": "candidate",
          "type": "address"
        }
      ],
      "name": "isInitialized",
      "outputs": [
        {
          "internalType": "bool",
          "name": "",
          "type": "bool"
        }
      ],
      "payable": false,
      "stateMutability": "view",
      "type": "function"
    },
    {
      "constant": true,
      "inputs": [
        {
          "internalType": "address",
          "name": "candidate",
          "type": "address"
        }
      ],
      "name": "isNominated",
      "outputs": [
        {
          "internalType": "bool",
          "name": "",
          "type": "bool"
        }
      ],
      "payable": false,
      "stateMutability": "view",
      "type": "function"
    },
    {
      "constant": true,
      "inputs": [
        {
          "internalType": "address",
          "name": "account",
          "type": "address"
        }
      ],
      "name": "lockedUntil",
      "outputs": [
        {
          "internalType": "uint256",
          "name": "",
          "type": "uint256"
        }
      ],
      "payable": false,
      "stateMutability": "view",
      "type": "function"
    },
    {
      "constant": true,
      "inputs": [],
      "name": "name",
      "outputs": [
        {
          "internalType": "string",
          "name": "",
          "type": "string"
        }
      ],
      "payable": false,
      "stateMutability": "view",
      "type": "function"
    },
    {
      "constant": true,
      "inputs": [],
      "name": "oracle",
      "outputs": [
        {
          "internalType": "contract IOracle",
          "name": "",
          "type": "address"
        }
      ],
      "payable": false,
      "stateMutability": "view",
      "type": "function"
    },
    {
      "constant": true,
      "inputs": [
        {
          "internalType": "uint256",
          "name": "epoch",
          "type": "uint256"
        }
      ],
      "name": "outstandingCoupons",
      "outputs": [
        {
          "internalType": "uint256",
          "name": "",
          "type": "uint256"
        }
      ],
      "payable": false,
      "stateMutability": "view",
      "type": "function"
    },
    {
      "constant": true,
      "inputs": [
        {
          "internalType": "address",
          "name": "candidate",
          "type": "address"
        }
      ],
      "name": "periodFor",
      "outputs": [
        {
          "internalType": "uint256",
          "name": "",
          "type": "uint256"
        }
      ],
      "payable": false,
      "stateMutability": "view",
      "type": "function"
    },
    {
      "constant": true,
      "inputs": [],
      "name": "pool",
      "outputs": [
        {
          "internalType": "address",
          "name": "",
          "type": "address"
        }
      ],
      "payable": false,
      "stateMutability": "view",
      "type": "function"
    },
    {
      "constant": false,
      "inputs": [
        {
          "internalType": "uint256",
          "name": "bitcoinAmount",
          "type": "uint256"
        }
      ],
      "name": "purchaseCoupons",
      "outputs": [
        {
          "internalType": "uint256",
          "name": "",
          "type": "uint256"
        }
      ],
      "payable": false,
      "stateMutability": "nonpayable",
      "type": "function"
    },
    {
      "constant": true,
      "inputs": [
        {
          "internalType": "address",
          "name": "account",
          "type": "address"
        },
        {
          "internalType": "address",
          "name": "candidate",
          "type": "address"
        }
      ],
      "name": "recordedVote",
      "outputs": [
        {
          "internalType": "enum Candidate.Vote",
          "name": "",
          "type": "uint8"
        }
      ],
      "payable": false,
      "stateMutability": "view",
      "type": "function"
    },
    {
      "constant": false,
      "inputs": [
        {
          "internalType": "uint256",
          "name": "couponEpoch",
          "type": "uint256"
        },
        {
          "internalType": "uint256",
          "name": "couponAmount",
          "type": "uint256"
        }
      ],
      "name": "redeemCoupons",
      "outputs": [],
      "payable": false,
      "stateMutability": "nonpayable",
      "type": "function"
    },
    {
      "constant": true,
      "inputs": [
        {
          "internalType": "address",
          "name": "candidate",
          "type": "address"
        }
      ],
      "name": "rejectFor",
      "outputs": [
        {
          "internalType": "uint256",
          "name": "",
          "type": "uint256"
        }
      ],
      "payable": false,
      "stateMutability": "view",
      "type": "function"
    },
    {
      "constant": true,
      "inputs": [
        {
          "internalType": "address",
          "name": "candidate",
          "type": "address"
        }
      ],
      "name": "startFor",
      "outputs": [
        {
          "internalType": "uint256",
          "name": "",
          "type": "uint256"
        }
      ],
      "payable": false,
      "stateMutability": "view",
      "type": "function"
    },
    {
      "constant": true,
      "inputs": [
        {
          "internalType": "address",
          "name": "account",
          "type": "address"
        }
      ],
      "name": "statusOf",
      "outputs": [
        {
          "internalType": "enum Account.Status",
          "name": "",
          "type": "uint8"
        }
      ],
      "payable": false,
      "stateMutability": "view",
      "type": "function"
    },
    {
      "constant": true,
      "inputs": [],
      "name": "symbol",
      "outputs": [
        {
          "internalType": "string",
          "name": "",
          "type": "string"
        }
      ],
      "payable": false,
      "stateMutability": "view",
      "type": "function"
    },
    {
      "constant": true,
      "inputs": [],
      "name": "totalBonded",
      "outputs": [
        {
          "internalType": "uint256",
          "name": "",
          "type": "uint256"
        }
      ],
      "payable": false,
      "stateMutability": "view",
      "type": "function"
    },
    {
      "constant": true,
      "inputs": [
        {
          "internalType": "uint256",
          "name": "epoch",
          "type": "uint256"
        }
      ],
      "name": "totalBondedAt",
      "outputs": [
        {
          "internalType": "uint256",
          "name": "",
          "type": "uint256"
        }
      ],
      "payable": false,
      "stateMutability": "view",
      "type": "function"
    },
    {
      "constant": true,
      "inputs": [],
      "name": "totalCoupons",
      "outputs": [
        {
          "internalType": "uint256",
          "name": "",
          "type": "uint256"
        }
      ],
      "payable": false,
      "stateMutability": "view",
      "type": "function"
    },
    {
      "constant": true,
      "inputs": [],
      "name": "totalDebt",
      "outputs": [
        {
          "internalType": "uint256",
          "name": "",
          "type": "uint256"
        }
      ],
      "payable": false,
      "stateMutability": "view",
      "type": "function"
    },
    {
      "constant": true,
      "inputs": [],
      "name": "totalNet",
      "outputs": [
        {
          "internalType": "uint256",
          "name": "",
          "type": "uint256"
        }
      ],
      "payable": false,
      "stateMutability": "view",
      "type": "function"
    },
    {
      "constant": true,
      "inputs": [],
      "name": "totalRedeemable",
      "outputs": [
        {
          "internalType": "uint256",
          "name": "",
          "type": "uint256"
        }
      ],
      "payable": false,
      "stateMutability": "view",
      "type": "function"
    },
    {
      "constant": true,
      "inputs": [],
      "name": "totalStaged",
      "outputs": [
        {
          "internalType": "uint256",
          "name": "",
          "type": "uint256"
        }
      ],
      "payable": false,
      "stateMutability": "view",
      "type": "function"
    },
    {
      "constant": true,
      "inputs": [],
      "name": "totalSupply",
      "outputs": [
        {
          "internalType": "uint256",
          "name": "",
          "type": "uint256"
        }
      ],
      "payable": false,
      "stateMutability": "view",
      "type": "function"
    },
    {
      "constant": false,
      "inputs": [
        {
          "internalType": "address",
          "name": "recipient",
          "type": "address"
        },
        {
          "internalType": "uint256",
          "name": "amount",
          "type": "uint256"
        }
      ],
      "name": "transfer",
      "outputs": [
        {
          "internalType": "bool",
          "name": "",
          "type": "bool"
        }
      ],
      "payable": false,
      "stateMutability": "nonpayable",
      "type": "function"
    },
    {
      "constant": false,
      "inputs": [
        {
          "internalType": "address",
          "name": "sender",
          "type": "address"
        },
        {
          "internalType": "address",
          "name": "recipient",
          "type": "address"
        },
        {
          "internalType": "uint256",
          "name": "epoch",
          "type": "uint256"
        },
        {
          "internalType": "uint256",
          "name": "amount",
          "type": "uint256"
        }
      ],
      "name": "transferCoupons",
      "outputs": [],
      "payable": false,
      "stateMutability": "nonpayable",
      "type": "function"
    },
    {
      "constant": false,
      "inputs": [
        {
          "internalType": "address",
          "name": "sender",
          "type": "address"
        },
        {
          "internalType": "address",
          "name": "recipient",
          "type": "address"
        },
        {
          "internalType": "uint256",
          "name": "amount",
          "type": "uint256"
        }
      ],
      "name": "transferFrom",
      "outputs": [
        {
          "internalType": "bool",
          "name": "",
          "type": "bool"
        }
      ],
      "payable": false,
      "stateMutability": "nonpayable",
      "type": "function"
    },
    {
      "constant": false,
      "inputs": [
        {
          "internalType": "uint256",
          "name": "value",
          "type": "uint256"
        }
      ],
      "name": "unbond",
      "outputs": [],
      "payable": false,
      "stateMutability": "nonpayable",
      "type": "function"
    },
    {
      "constant": false,
      "inputs": [
        {
          "internalType": "uint256",
          "name": "value",
          "type": "uint256"
        }
      ],
      "name": "unbondUnderlying",
      "outputs": [],
      "payable": false,
      "stateMutability": "nonpayable",
      "type": "function"
    },
    {
      "constant": false,
      "inputs": [
        {
          "internalType": "address",
          "name": "candidate",
          "type": "address"
        },
        {
          "internalType": "enum Candidate.Vote",
          "name": "vote",
          "type": "uint8"
        }
      ],
      "name": "vote",
      "outputs": [],
      "payable": false,
      "stateMutability": "nonpayable",
      "type": "function"
    },
    {
      "constant": true,
      "inputs": [
        {
          "internalType": "address",
          "name": "candidate",
          "type": "address"
        }
      ],
      "name": "votesFor",
      "outputs": [
        {
          "internalType": "uint256",
          "name": "",
          "type": "uint256"
        }
      ],
      "payable": false,
      "stateMutability": "view",
      "type": "function"
    },
    {
      "constant": false,
      "inputs": [
        {
          "internalType": "uint256",
          "name": "value",
          "type": "uint256"
        }
      ],
      "name": "withdraw",
      "outputs": [],
      "payable": false,
      "stateMutability": "nonpayable",
      "type": "function"
    },
    {
      "constant": false,
      "inputs": [],
      "name": "initialize",
      "outputs": [],
      "payable": false,
      "stateMutability": "nonpayable",
      "type": "function"
    },
    {
      "constant": false,
      "inputs": [],
      "name": "advance",
      "outputs": [],
      "payable": false,
      "stateMutability": "nonpayable",
      "type": "function"
    }
  ],
  "bytecode": "0x608060405234801561001057600080fd5b50614313806100206000396000f3fe608060405234801561001057600080fd5b50600436106103825760003560e01c80638129fc1c116101de578063bc7513e21161010f578063d8f54138116100ad578063ea105ac71161007c578063ea105ac714610714578063f1b7cf491461071c578063fc7b9c181461072f578063ffbe3b731461073757610382565b8063d8f54138146106cd578063dd62ed3e146106e0578063df9a2b1c146106ee578063e5f55c7e1461070157610382565b8063ced35070116100e9578063ced3507014610697578063cf0237791461069f578063d60b347f146106a7578063d6a9cf08146106ba57610382565b8063bc7513e21461065e578063bceb514d14610671578063c9aff70c1461068457610382565b80639a649edc1161017c578063a50cd8e711610156578063a50cd8e714610630578063a6c409f114610643578063a9059cbb146103ba578063b6b55f251461064b57610382565b80639a649edc146106025780639bc289f11461060a5780639f6e1b261461061d57610382565b8063900cf0cf116101b8578063900cf0cf146105cc57806395d89b41146105d457806397a5d5b5146105dc5780639940686e146105ef57610382565b80638129fc1c1461059e578063825ad607146105a657806386cf9f14146105b957610382565b8063369e8c1d116102b857806351bf21d8116102565780636a39e328116102305780636a39e3281461055057806370a082311461056357806375d5024b146105765780637dc0d1d01461058957610382565b806351bf21d8146105225780635c60da1b14610535578063646680221461053d57610382565b806344d96e951161029257806344d96e95146104ec57806347c05069146104f45780634c736099146105075780635053e4611461051a57610382565b8063369e8c1d146104a65780633a3e6c81146104b95780633fbba9a6146104cc57610382565b80631edbcf6c116103255780632e1a7d4d116102ff5780632e1a7d4d146104585780632f7f889e1461046b578063313ce5671461047e578063353a420c1461049357610382565b80631edbcf6c1461042a57806323b872dd1461043257806327de9e321461044557610382565b806310e95b6c1161036157806310e95b6c146103da57806315e14bf6146103fa57806316f0115b1461040d57806318160ddd1461042257610382565b80625edd371461038757806306fdde031461039c578063095ea7b3146103ba575b600080fd5b61039a610395366004613a97565b61074a565b005b6103a461086d565b6040516103b19190613fc6565b60405180910390f35b6103cd6103c8366004613b28565b6108a5565b6040516103b19190613f8e565b6103ed6103e8366004613ba6565b6108ae565b6040516103b19190614047565b6103ed6104083660046139f2565b6108c6565b6104156108e4565b6040516103b19190613f21565b6103ed6108f3565b6103ed6108f9565b6103cd610440366004613a4a565b6108ff565b61039a610453366004613ba6565b610909565b61039a610466366004613ba6565b610a53565b61039a610479366004613b28565b610b8b565b610486610c0b565b6040516103b191906140db565b6103ed6104a13660046139f2565b610c10565b61039a6104b43660046139f2565b610c2e565b6103cd6104c73660046139f2565b610dbf565b6104df6104da366004613a10565b610ddc565b6040516103b19190613faa565b6103ed610e0f565b61039a6105023660046139f2565b610e15565b6103ed610515366004613be2565b610f08565b6103ed610f38565b6103ed6105303660046139f2565b610f72565b610415610f90565b6103ed61054b3660046139f2565b610fb5565b6103ed61055e366004613ba6565b610fd3565b6103ed6105713660046139f2565b610fe8565b6103cd610584366004613ba6565b611006565b610591611019565b6040516103b19190613f9c565b61039a611028565b6103ed6105b43660046139f2565b611085565b6103ed6105c73660046139f2565b6110c5565b6103ed6110e0565b6103a46110e6565b6104df6105ea3660046139f2565b611104565b61039a6105fd366004613ba6565b611169565b6103ed611237565b6103ed6106183660046139f2565b61123d565b6103ed61062b366004613a10565b61125b565b6103ed61063e3660046139f2565b61128a565b6103ed6112a1565b61039a610659366004613ba6565b61132b565b6103ed61066c366004613b28565b611403565b61039a61067f366004613af8565b611447565b6103ed610692366004613ba6565b6116ed565b610591611702565b6103ed611711565b6103cd6106b53660046139f2565b611717565b61039a6106c8366004613be2565b611738565b6103ed6106db366004613ba6565b6117cc565b6103ed6103c8366004613a10565b61039a6106fc366004613ba6565b611857565b6103ed61070f366004613ba6565b611915565b61039a611a07565b6103ed61072a3660046139f2565b611a73565b6103ed611a8e565b6103ed610745366004613ba6565b611a94565b6001600160a01b0384166107795760405162461bcd60e51b815260040161077090614027565b60405180910390fd5b6001600160a01b03831661079f5760405162461bcd60e51b815260040161077090613fe7565b6107c38483836040518060600160405280602381526020016141f260239139611aa6565b6107ce838383611b51565b336001600160a01b038516148015906107f257506000196107ef853361125b565b14155b1561081b5761081b84338360405180606001604052806024815260200161423960249139611bf8565b81836001600160a01b0316856001600160a01b03167f0f1dbb1ccbe57a1590c7baad7b01d581b730c9ebc535dcde4345e6db424063d88460405161085f9190614047565b60405180910390a450505050565b60408051808201909152601781527f456d7074792053657420426974636f696e205374616b6500000000000000000060208201525b90565b60005b92915050565b6000818152600d60205260409020600201545b919050565b6001600160a01b03166000908152600e602052604090206001015490565b600b546001600160a01b031690565b60035490565b60065490565b60005b9392505050565b3361095060025b61091983611104565b600281111561092457fe5b1415692832b936b4b9b9b4b7b760b11b72139bdd08199c9bde995b881bdc88199b1d5a59606a1b611c69565b61095933611cbe565b600061098c61096733610fe8565b61098061097333611085565b869063ffffffff611ce816565b9063ffffffff611d2216565b90506109983382611d64565b6109ba8160405180606001604052806022815260200161425d60229139611dc0565b6109fa33846040518060400160405280601d81526020017f426f6e64696e673a20696e73756666696369656e742062616c616e6365000000815250611ddb565b337f93530ac0ee8c50e696e13c5ac62355d0c0ba4bd943620d5bda1eb08b64ae7512610a356001610a296110e0565b9063ffffffff611e8616565b8584604051610a4693929190614098565b60405180910390a2505050565b33610a9b60015b610a6383611104565b6002811115610a6e57fe5b1415692832b936b4b9b9b4b7b760b11b73139bdd08199c9bde995b881bdc881b1bd8dad95960621b611c69565b610aa3611702565b6001600160a01b031663a9059cbb33846040518363ffffffff1660e01b8152600401610ad0929190613f57565b602060405180830381600087803b158015610aea57600080fd5b505af1158015610afe573d6000803e3d6000fd5b505050506040513d601f19601f82011682018060405250610b229190810190613b58565b50610b46338360405180606001604052806024815260200161421560249139611eab565b336001600160a01b03167f884edad9ce6fa2440d8a54cc123490eb96d2768479d49ff9c7366125a942436483604051610b7f9190614047565b60405180910390a25050565b6001600160a01b038216610bb15760405162461bcd60e51b815260040161077090614017565b610bbc338383611f0a565b816001600160a01b0316336001600160a01b03167f8ff27e6b95060c1ca851e7c2c28af8b413eb1a8bcb637b0290da9543a709cce383604051610bff9190614047565b60405180910390a35050565b601290565b6001600160a01b03166000908152600e602052604090206003015490565b610c5a610c3a82610dbf565b6523b7bb32b93760d11b6c139bdd081b9bdb5a5b985d1959609a1b611c69565b6000610c826001610c76610c6d856108c6565b610a2986611a73565b9063ffffffff611f3a16565b9050610cad81610c906110e0565b116523b7bb32b93760d11b68139bdd08195b99195960ba1b611c69565b610cf0610ccc610cbb611f7c565b610a2984600163ffffffff611e8616565b610cd46110e0565b11156523b7bb32b93760d11b66115e1c1a5c995960ca1b611c69565b610d47610d24610cfe611f81565b610d18610d0a8661128a565b610d1386611a94565b611fa3565b9063ffffffff611fd216565b6523b7bb32b93760d11b6f4d75737420686176652071756f726f6d60801b611c69565b610d7c610d5383610c10565b610d5c84610fb5565b116523b7bb32b93760d11b6b139bdd08185c1c1c9bdd995960a21b611c69565b610d8582611fe8565b6040516001600160a01b0383169033907f815ca4497ab9fc80c76f210e6e842a5e198e195aa136034557eee144f790e7bb90600090a35050565b6001600160a01b03166000908152600e6020526040902054151590565b6001600160a01b038082166000908152600e60209081526040808320938616835260049093019052205460ff1692915050565b60045490565b610e21610c3a82610dbf565b610e5f610e37610e2f6120d4565b610a296110e0565b610e3f610f38565b116523b7bb32b93760d11b6b115c1bd8da081cde5b98d95960a21b611c69565b610eb1610e81610e6d6120d9565b610d18610e7985610fb5565b610d136108f3565b6523b7bb32b93760d11b7f4d7573742068617665207375706572206d616a6f726974790000000000000000611c69565b610ec6610ebd82610c10565b610d5c83610fb5565b610ecf81611fe8565b6040516001600160a01b0382169033907f815ca4497ab9fc80c76f210e6e842a5e198e195aa136034557eee144f790e7bb90600090a350565b6000828152600d60205260408120600301805483908110610f2557fe5b9060005260206000200154905092915050565b6000610f42613954565b610f4a6120fb565b9050610f6c8160000151610a2983604001516109808560200151610c7661212a565b91505090565b6001600160a01b03166000908152600c602052604090206004015490565b7f360894a13ba1a3210667c828492db98dca3e2076cc3735a920a3ca505d382bbc5490565b6001600160a01b03166000908152600e602052604090206002015490565b6000908152600d602052604090206003015490565b6001600160a01b03166000908152600c602052604090206001015490565b600061101061212e565b90911115919050565b600a546001600160a01b031690565b6110616110366106b5610f90565b15692832b936b4b9b9b4b7b760b11b72105b1c9958591e481a5b9a5d1a585b1a5e9959606a1b611c69565b61107161106c610f90565b612133565b611083336706f05b59d3b2000061215a565b565b6000806110906108f3565b9050806110a15760009150506108c1565b610902816109806110b186610fe8565b6110b9610e0f565b9063ffffffff611ce816565b6001600160a01b03166000908152600c602052604090205490565b60025490565b6040805180820190915260048152634553425360e01b602082015290565b600061110e6110e0565b6001600160a01b0383166000908152600c60205260409020600501541115611138575060026108c1565b6001600160a01b0382166000908152600c602052604090206004015461115c6110e0565b10156108a55760016108a8565b336111746002610910565b61117d33611cbe565b6000611187610e0f565b156111a7576111a2611197610e0f565b6109806109736108f3565b6111bf565b6111bf6111b261219d565b849063ffffffff611ce816565b90506111cb33826121a4565b6111d483612240565b6111f7338460405180606001604052806024815260200161421560249139611eab565b337f44002fdef5a0c2d2e4e05572e9780b95aef97e0e93ffd7cc076b09fa78ff2b466112266001610a296110e0565b8386604051610a4693929190614098565b60085490565b6001600160a01b03166000908152600c602052604090206005015490565b6001600160a01b039182166000908152600c602090815260408083209390941682526003909201909152205490565b60006108a861129883610c10565b610a2984610fb5565b60006113266112ae611a8e565b6112b6611702565b6001600160a01b03166318160ddd6040518163ffffffff1660e01b815260040160206040518083038186803b1580156112ee57600080fd5b505afa158015611302573d6000803e3d6000fd5b505050506040513d601f19601f82011682018060405250610c769190810190613bc4565b905090565b336113366001610a5a565b61133e611702565b6001600160a01b03166323b872dd3330856040518463ffffffff1660e01b815260040161136d93929190613f2f565b602060405180830381600087803b15801561138757600080fd5b505af115801561139b573d6000803e3d6000fd5b505050506040513d601f19601f820116820180604052506113bf9190810190613b58565b506113ca3383611d64565b336001600160a01b03167fe1fffcc4923d04b559f4d29a8bfc6cda04eb5b0d3c460751c2402c5c5cc9109c83604051610b7f9190614047565b600061140e826116ed565b61141a575060006108a8565b506001600160a01b03919091166000908152600c6020908152604080832093835260029093019052205490565b336114526001610a5a565b611483600061146033610fe8565b116523b7bb32b93760d11b6e4d7573742068617665207374616b6560881b611c69565b61148c83610dbf565b61152f576114cc61149c33612259565b6523b7bb32b93760d11b7f4e6f7420656e6f756768207374616b6520746f2070726f706f73650000000000611c69565b6114dd836114d861229d565b6122a2565b6114e56110e0565b336001600160a01b0385167fd15e38a680a427478883cd2d32eb664cb6bb2090b0126a23ebaf3e3784b8c56b61151961229d565b6040516115269190614047565b60405180910390a45b61155f61153e610c6d856108c6565b6115466110e0565b106523b7bb32b93760d11b64115b99195960da1b611c69565b600061156a33610fe8565b905060006115783386610ddc565b905080600281111561158657fe5b84600281111561159257fe5b141561159f5750506116e8565b60028160028111156115ad57fe5b14156115f3576115f385836040518060400160405280601b81526020017f476f7665726e3a20496e73756666696369656e742072656a65637400000000008152506122ce565b600181600281111561160157fe5b14156116475761164785836040518060400160405280601c81526020017f476f7665726e3a20496e73756666696369656e7420617070726f76650000000081525061231f565b600284600281111561165557fe5b1415611665576116658583612370565b600184600281111561167357fe5b14156116835761168385836123bf565b61168e33868661240e565b6116983386612458565b846001600160a01b0316336001600160a01b03167fbe50c78cbc15b0864819aadea36c6499da421b33c38e2ef19bebda583c708c7886856040516116dd929190613fb8565b60405180910390a350505b505050565b6000908152600d602052604090206001015490565b6009546001600160a01b031690565b60055490565b6001600160a01b03166000908152600e602052604090206005015460ff1690565b600261174683610c766110e0565b10156117645760405162461bcd60e51b815260040161077090614037565b6117883383836040518060600160405280602381526020016141f260239139611aa6565b61179233826124b9565b81336001600160a01b03167f46e9903ae8ac9e9f0c9bc321b05965c1c036e7d4783758703f5cdfc4133c51b683604051610bff9190614047565b60006108a86117d9611702565b6001600160a01b03166318160ddd6040518163ffffffff1660e01b815260040160206040518083038186803b15801561181157600080fd5b505afa158015611825573d6000803e3d6000fd5b505050506040513d601f19601f820116820180604052506118499190810190613bc4565b611851611a8e565b8461256f565b336118626002610910565b61186b33611cbe565b6000611878611197610e0f565b90506118843384611d64565b6118a68360405180606001604052806022815260200161425d60229139611dc0565b6118e633826040518060400160405280601d81526020017f426f6e64696e673a20696e73756666696369656e742062616c616e6365000000815250611ddb565b337f93530ac0ee8c50e696e13c5ac62355d0c0ba4bd943620d5bda1eb08b64ae75126112266001610a296110e0565b600061194e600083116513585c9ad95d60d21b7f4d757374207075726368617365206e6f6e2d7a65726f20616d6f756e74000000611c69565b61197e8261195a611a8e565b10156513585c9ad95d60d21b6e139bdd08195b9bdd59da081919589d608a1b611c69565b60006119886110e0565b905060006119a5611998856117cc565b859063ffffffff611e8616565b90506119b1338561259c565b6119bc338383611b51565b81336001600160a01b03167fbce252db29f761f815dc2e9ea60005af065efba6eb619d2a0b2a113fdeb6141486846040516119f8929190614055565b60405180910390a39392505050565b611a1833611a136126ad565b61215a565b611a206126b9565b611a28612704565b611a3061278f565b611a386110e0565b7fc30b728d1c19e5db3678b8ea9e9a063a5655071e1a325c2f7fdbca48baa906004342604051611a69929190614055565b60405180910390a2565b6001600160a01b03166000908152600e602052604090205490565b60075490565b6000908152600d602052604090205490565b6001600160a01b0384166000908152600c60209081526040808320868452600201909152902054611ade90838363ffffffff6127e916565b6001600160a01b0385166000908152600c60209081526040808320878452600201825280832093909355600d90522060010154611b2290838363ffffffff6127e916565b6000848152600d6020526040902060010155600854611b4890838363ffffffff6127e916565b60085550505050565b6001600160a01b0383166000908152600c60209081526040808320858452600201909152902054611b88908263ffffffff611e8616565b6001600160a01b0384166000908152600c60209081526040808320868452600201825280832093909355600d90522060010154611bcb908263ffffffff611e8616565b6000838152600d6020526040902060010155600854611bf0908263ffffffff611e8616565b600855505050565b6001600160a01b038085166000908152600c602090815260408083209387168352600390930190522054611c3390838363ffffffff6127e916565b6001600160a01b039485166000908152600c60209081526040808320969097168252600390950190945293909220929092555050565b826116e857611c7782612815565b6101d160f51b611c8683612815565b604051602001611c9893929190613ef0565b60408051601f198184030181529082905262461bcd60e51b825261077091600401613fc6565b611cc9610e2f612895565b6001600160a01b039091166000908152600c6020526040902060040155565b600082611cf7575060006108a8565b82820282848281611d0457fe5b04146109025760405162461bcd60e51b815260040161077090613ff7565b600061090283836040518060400160405280601a81526020017f536166654d6174683a206469766973696f6e206279207a65726f00000000000081525061289a565b6001600160a01b0382166000908152600c6020526040902054611d8d908263ffffffff611e8616565b6001600160a01b0383166000908152600c6020526040902055600554611db9908263ffffffff611e8616565b6005555050565b600454611dd490838363ffffffff6127e916565b6004555050565b6001600160a01b0383166000908152600c6020526040902060010154611e0890838363ffffffff6127e916565b6001600160a01b0384166000908152600c6020526040902060010155600354611e3890838363ffffffff6127e916565b6003556040516000906001600160a01b038516907fddf252ad1be2c89b69c2b068fc378daa952ba7f163c4a11628f55a4df523b3ef90611e79908690614047565b60405180910390a3505050565b6000828201838110156109025760405162461bcd60e51b815260040161077090613fd7565b6001600160a01b0383166000908152600c6020526040902054611ed590838363ffffffff6127e916565b6001600160a01b0384166000908152600c6020526040902055600554611f0290838363ffffffff6127e916565b600555505050565b6001600160a01b039283166000908152600c60209081526040808320949095168252600390930190925291902055565b600061090283836040518060400160405280601e81526020017f536166654d6174683a207375627472616374696f6e206f766572666c6f7700008152506127e9565b600290565b611f89613975565b5060408051602081019091526702c68af0bb140000815290565b611fab613975565b6040518060200160405280611fc985670de0b6b3a7640000866128d1565b90529392505050565b6000611fde83836128e7565b6002149392505050565b611ff181612919565b60408051600481526024810182526020810180516001600160e01b031663204a7f0760e21b17905290516000916060916001600160a01b0385169161203591613ee4565b600060405180830381855af49150503d8060008114612070576040519150601f19603f3d011682016040523d82523d6000602084013e612075565b606091505b509150915081819061209a5760405162461bcd60e51b81526004016107709190613fc6565b506040516001600160a01b038416907fbc7cd75a20ee27fd9adebab32041f755214dbc6bffa90cc0225b39da2e5c2d3b90600090a2505050565b600690565b6120e1613975565b506040805160208101909152670928ca80cfc20000815290565b612103613954565b604051806060016040528060008152602001635fe7ce808152602001615460815250905090565b4290565b603890565b6001600160a01b03166000908152600e60205260409020600501805460ff19166001179055565b6121648282612962565b816001600160a01b03167fbb4f656853bc420ad6e4321622c07eefb4ed40e3f91b35553ce14a6dff4c098182604051610b7f9190614047565b620f424090565b6001600160a01b0382166000908152600c60205260409020600101546121d0908263ffffffff611e8616565b6001600160a01b0383166000908152600c60205260409020600101556003546121ff908263ffffffff611e8616565b6003556040516001600160a01b038316906000907fddf252ad1be2c89b69c2b068fc378daa952ba7f163c4a11628f55a4df523b3ef90610bff908590614047565b600454612253908263ffffffff611e8616565b60045550565b6000612263610e0f565b61226f575060006108c1565b612277613975565b612283610e7984610fe8565b9050610902612290612a0b565b829063ffffffff611fd216565b600990565b6122aa6110e0565b6001600160a01b039092166000908152600e60205260409020918255600190910155565b6001600160a01b0383166000908152600e60205260409020600301546122fb90838363ffffffff6127e916565b6001600160a01b039093166000908152600e60205260409020600301929092555050565b6001600160a01b0383166000908152600e602052604090206002015461234c90838363ffffffff6127e916565b6001600160a01b039093166000908152600e60205260409020600201929092555050565b6001600160a01b0382166000908152600e602052604090206003015461239c908263ffffffff611e8616565b6001600160a01b039092166000908152600e602052604090206003019190915550565b6001600160a01b0382166000908152600e60205260409020600201546123eb908263ffffffff611e8616565b6001600160a01b039092166000908152600e602052604090206002019190915550565b6001600160a01b038083166000908152600e6020908152604080832093871683526004909301905220805482919060ff1916600183600281111561244e57fe5b0217905550505050565b6001600160a01b0382166000908152600c60205260408120600501549061248a612481846108c6565b610a2985611a73565b9050818111156124b3576001600160a01b0384166000908152600c602052604090206005018190555b50505050565b6124c1611702565b6001600160a01b031663a9059cbb83836040518363ffffffff1660e01b81526004016124ee929190613f80565b602060405180830381600087803b15801561250857600080fd5b505af115801561251c573d6000803e3d6000fd5b505050506040513d601f19601f820116820180604052506125409190810190613b58565b50612563816040518060600160405280602a81526020016142a7602a9139612a2c565b61256b612a47565b5050565b600061259461258f83612583878787612b1a565b9063ffffffff612c9316565b612cba565b949350505050565b6125a4611702565b6001600160a01b03166323b872dd8330846040518463ffffffff1660e01b81526004016125d393929190613f72565b602060405180830381600087803b1580156125ed57600080fd5b505af1158015612601573d6000803e3d6000fd5b505050506040513d601f19601f820116820180604052506126259190810190613b58565b5061262e611702565b6001600160a01b03166342966c68826040518263ffffffff1660e01b81526004016126599190614047565b600060405180830381600087803b15801561267357600080fd5b505af1158015612687573d6000803e3d6000fd5b505050506125638160405180606001604052806028815260200161427f60289139612cd7565b67016345785d8a000090565b6126f46126c46110e0565b6126cc610f38565b1166426f6e64696e6760c81b720a6e8d2d8d840c6eae4e4cadce840cae0dec6d606b1b611c69565b6126fc612cf2565b611083612d19565b61270c613975565b612714612d32565b9050612721612290612dfa565b156127355761272f81612e1c565b50611083565b61274d612740612dfa565b829063ffffffff612ed816565b1561275b5761272f81612eec565b6127636110e0565b6040517fff7db5a0dc69b02c191ba632db46961b7d0daa1bd30709ddba9b80ad0a15d2c090600090a250565b60005b61279d61055e6110e0565b8110156127c5576127bd6127b86127b26110e0565b83610f08565b612f7e565b600101612792565b5060006127d3610e2f613016565b90506127e66127e06110e0565b8261301b565b50565b6000818484111561280d5760405162461bcd60e51b81526004016107709190613fc6565b505050900390565b606080826040516020016128299190613ecf565b60408051601f19818403018152919052905060205b801561287e5781516000199091019082908290811061285957fe5b01602001516001600160f81b0319161561287957600101815290506108c1565b61283e565b505060408051600081526020810190915292915050565b601490565b600081836128bb5760405162461bcd60e51b81526004016107709190613fc6565b5060008385816128c757fe5b0495945050505050565b600061259482610980868663ffffffff611ce816565b8051825160009114156128fc575060016108a8565b815183511161290c57600061290f565b60025b60ff169392505050565b6129228161304d565b61293e5760405162461bcd60e51b815260040161077090614007565b7f360894a13ba1a3210667c828492db98dca3e2076cc3735a920a3ca505d382bbc55565b61296a611702565b6001600160a01b03166340c10f1983836040518363ffffffff1660e01b8152600401612997929190613f80565b602060405180830381600087803b1580156129b157600080fd5b505af11580156129c5573d6000803e3d6000fd5b505050506040513d601f19601f820116820180604052506129e99190810190613b58565b506129f56105846110e0565b61256357612a0281613053565b5061256b612a47565b612a13613975565b5060408051602081019091526611c37937e08000815290565b600654612a4090838363ffffffff6127e916565b6006555050565b611083612a68612a556108f9565b610a29612a60611711565b610a29610e0f565b612a70611702565b6001600160a01b03166370a08231306040518263ffffffff1660e01b8152600401612a9b9190613f21565b60206040518083038186803b158015612ab357600080fd5b505afa158015612ac7573d6000803e3d6000fd5b505050506040513d601f19601f82011682018060405250612aeb9190810190613bc4565b10156a21b7b6b83a3937b63632b960a91b74496e636f6e73697374656e742062616c616e63657360581b611c69565b612b22613975565b612b2a613975565b612b348486611fa3565b9050612b3e613975565b612b4661309a565b90506000612b5a878663ffffffff611f3a16565b90506000612b6e878763ffffffff611f3a16565b9050612b78613975565b612b828284611fa3565b9050612b94858563ffffffff611fd216565b15612c7c57612ba9818563ffffffff611fd216565b15612bc357612bb7846130bc565b95505050505050610902565b612bcb613975565b612bd58286613114565b9050612bdf613975565b612bef868463ffffffff61317116565b9050612bf9613975565b612c02876130bc565b9050612c0c613975565b612c1c898963ffffffff61317116565b9050612c6c612c31848363ffffffff61319a16565b612c60612c44858563ffffffff6131c316565b612c54888863ffffffff6131c316565b9063ffffffff61319a16565b9063ffffffff6131f116565b9950505050505050505050610902565b612c868186613114565b9998505050505050505050565b612c9b613975565b604080516020810190915283518190611fc9908563ffffffff611ce816565b80516000906108a890670de0b6b3a764000063ffffffff611d2216565b600754612ceb90838363ffffffff6127e916565b6007555050565b612cfa6108f3565b600d6000612d066110e0565b8152602081019190915260400160002055565b600254612d2d90600163ffffffff611e8616565b600255565b612d3a613975565b612d42613975565b6000612d4c611019565b6001600160a01b031663d4a3e9d76040518163ffffffff1660e01b81526004016040805180830381600087803b158015612d8557600080fd5b505af1158015612d99573d6000803e3d6000fd5b505050506040513d601f19601f82011682018060405250612dbd9190810190613b76565b91509150612dd16105846001610c766110e0565b15612de757612dde61321f565b925050506108a2565b80612df457612dde612dfa565b50905090565b612e02613975565b506040805160208101909152670de0b6b3a7640000815290565b6000612e2e612e29613241565b61325c565b9050612e38613975565b612e59612e53612e46612dfa565b859063ffffffff61317116565b84613331565b90506000612e7861258f612e6b6112a1565b849063ffffffff612c9316565b9050600080612e86836133bc565b91509150612e926110e0565b86516040517f32fcaa1e76ed9517f4749d8ec9a77dd5e7329456d740b9bf9665d900eef5e28391612ec89186908a9087906140b3565b60405180910390a2505050505050565b6000612ee483836128e7565b159392505050565b612ef4613975565b612f15612f0f83612f03612dfa565b9063ffffffff61317116565b83613331565b90506000612f2761258f612e6b6112a1565b90506000612f3482613053565b9050612f3e6110e0565b84516040517f5e139d4b8080a4a00dcc151e8217694aeebae893936326aa22096924a990667791612f70918590614055565b60405180910390a250505050565b6000612f89826116ed565b9050600080612f9784613553565b6000612fa16108f9565b90506000612fad611237565b905080821115612fdf57612fc7828263ffffffff611f3a16565b9350612fd284613596565b612fdb846133bc565b9350505b857f753df65b37159bf237ae1fca97ba1bd57cf83bc9498f271a514a4d7bafe87bda8686600087604051612ec89493929190614063565b607890565b6000828152600d6020908152604080832060020184905592825291812060030180546001810182559082529190200155565b3b151590565b600061305e82613625565b600061306b612e2961309a565b9050613075612a47565b8281116130915761308c838263ffffffff611f3a16565b610902565b50600092915050565b6130a2613975565b5060408051602081019091526704db732547630000815290565b6130c4613975565b6108a86130d360016003611fa3565b612f0361310c6130f660026130ea88612f03612dfa565b9063ffffffff61363e16565b6131006003613694565b9063ffffffff6131c316565b612c60612dfa565b61311c613975565b61312c838363ffffffff6136c816565b156131415761313a836130bc565b90506108a8565b61090261315060016003611fa3565b612f0361310c61316287612f03612dfa565b6131006130f688612f03612dfa565b613179613975565b6040805160208101909152825184518291611fc9919063ffffffff611f3a16565b6131a2613975565b6040805160208101909152825184518291611fc9919063ffffffff611e8616565b6131cb613975565b6040518060200160405280611fc985600001518560000151670de0b6b3a76400006128d1565b6131f9613975565b6040518060200160405280611fc98560000151670de0b6b3a764000086600001516128d1565b613227613975565b506040805160208101909152670f43fc2c04ee0000815290565b613249613975565b5060408051602081019091526000815290565b6000806132ea61258f61326d611702565b6001600160a01b03166318160ddd6040518163ffffffff1660e01b815260040160206040518083038186803b1580156132a557600080fd5b505afa1580156132b9573d6000803e3d6000fd5b505050506040513d601f19601f820116820180604052506132dd9190810190613bc4565b859063ffffffff612c9316565b905060006132f6611a8e565b905081811115613327576000613312828463ffffffff611f3a16565b905061331d816136cf565b92506108c1915050565b5060009392505050565b613339613975565b613341613975565b61334961370e565b905060006133556108f9565b90506000613361611237565b905061337b61336e612dfa565b869063ffffffff611fd216565b801561338657508082105b1561339657613393613730565b92505b6133a6868463ffffffff611fd216565b6133b057856133b2565b825b9695505050505050565b60008080806133c9613751565b6001600160a01b0316141561343d5760006133f760646109806133ea612895565b889063ffffffff611ce816565b9050600061341961271061098061340c613756565b899063ffffffff611ce816565b905061342b828263ffffffff611e8616565b92506134368361375b565b505061348d565b600061344f60646109806133ea612895565b905061345a8161375b565b600061346d61271061098061340c613756565b9050613478816137ef565b613488828263ffffffff611e8616565b925050505b80841161349b5760006134ab565b6134ab848263ffffffff611f3a16565b93506000806134b86108f9565b905060006134c4611237565b90508082101561350d576134de818363ffffffff611f3a16565b92508683116134ed57826134ef565b865b92506134fa83613813565b61350a878463ffffffff611f3a16565b96505b613515610e0f565b61351e57600096505b861561352d5761352d876138a4565b613535612a47565b82613546888663ffffffff611e8616565b9550955050505050915091565b600061355e826116ed565b90508061356b57506127e6565b60085461357e908263ffffffff611f3a16565b600855506000908152600d6020526040812060010155565b61359e611702565b6001600160a01b03166342966c68826040518263ffffffff1660e01b81526004016135c99190614047565b600060405180830381600087803b1580156135e357600080fd5b505af11580156135f7573d6000803e3d6000fd5b5050505061361d816040518060600160405280602a81526020016142a7602a9139612a2c565b6127e6612a47565b600754613638908263ffffffff611e8616565b60075550565b613646613975565b816136555761313a6001613694565b61365d613975565b5060408051602081019091528351815260015b8381101561368c5761368282866131c3565b9150600101613670565b509392505050565b61369c613975565b6040805160208101909152806136c084670de0b6b3a764000063ffffffff611ce816565b905292915050565b5190511490565b61361d816040518060400160405280601c81526020017f436f6d7074726f6c6c65723a206e6f7420656e6f756768206465627400000000815250612cd7565b613716613975565b50604080516020810190915267016345785d8a0000815290565b613738613975565b50604080516020810190915266d529ae9e860000815290565b600090565b60fa90565b80156127e657613769611702565b6001600160a01b03166340c10f1961377f6108e4565b836040518363ffffffff1660e01b815260040161379d929190613f80565b602060405180830381600087803b1580156137b757600080fd5b505af11580156137cb573d6000803e3d6000fd5b505050506040513d601f19601f8201168201806040525061256b9190810190613b58565b80156127e6576137fd611702565b6001600160a01b03166340c10f1961377f613751565b61381b611702565b6001600160a01b03166340c10f1930836040518363ffffffff1660e01b8152600401613848929190613f80565b602060405180830381600087803b15801561386257600080fd5b505af1158015613876573d6000803e3d6000fd5b505050506040513d601f19601f8201168201806040525061389a9190810190613b58565b5061361d8161393b565b80156127e6576138b2611702565b6001600160a01b03166340c10f1930836040518363ffffffff1660e01b81526004016138df929190613f80565b602060405180830381600087803b1580156138f957600080fd5b505af115801561390d573d6000803e3d6000fd5b505050506040513d601f19601f820116820180604052506139319190810190613b58565b506127e681612240565b60065461394e908263ffffffff611e8616565b60065550565b60405180606001604052806000815260200160008152602001600081525090565b6040518060200160405280600081525090565b80356108a8816141be565b80516108a8816141d2565b80356108a8816141db565b6000602082840312156139bb57600080fd5b6139c560206140e9565b905060006139d384846139e7565b82525092915050565b80356108a8816141e8565b80516108a8816141e8565b600060208284031215613a0457600080fd5b60006125948484613988565b60008060408385031215613a2357600080fd5b6000613a2f8585613988565b9250506020613a4085828601613988565b9150509250929050565b600080600060608486031215613a5f57600080fd5b6000613a6b8686613988565b9350506020613a7c86828701613988565b9250506040613a8d868287016139dc565b9150509250925092565b60008060008060808587031215613aad57600080fd5b6000613ab98787613988565b9450506020613aca87828801613988565b9350506040613adb878288016139dc565b9250506060613aec878288016139dc565b91505092959194509250565b60008060408385031215613b0b57600080fd5b6000613b178585613988565b9250506020613a408582860161399e565b60008060408385031215613b3b57600080fd5b6000613b478585613988565b9250506020613a40858286016139dc565b600060208284031215613b6a57600080fd5b60006125948484613993565b60008060408385031215613b8957600080fd5b6000613b9585856139a9565b9250506020613a4085828601613993565b600060208284031215613bb857600080fd5b600061259484846139dc565b600060208284031215613bd657600080fd5b600061259484846139e7565b60008060408385031215613bf557600080fd5b6000613b4785856139dc565b613c0a81614156565b82525050565b613c0a8161411d565b613c0a81614128565b613c0a613c2e8261412d565b6108a2565b613c0a613c2e826108a2565b6000613c4a82614110565b613c5481856108c1565b9350613c6481856020860161417e565b9290920192915050565b613c0a8161415d565b613c0a81614168565b613c0a81614173565b6000613c9482614110565b613c9e8185614114565b9350613cae81856020860161417e565b613cb7816141aa565b9093019392505050565b6000613cce601b83614114565b7f536166654d6174683a206164646974696f6e206f766572666c6f770000000000815260200192915050565b6000613d07602b83614114565b7f4d61726b65743a20436f75706f6e207472616e7366657220746f20746865207a81526a65726f206164647265737360a81b602082015260400192915050565b6000613d54602183614114565b7f536166654d6174683a206d756c7469706c69636174696f6e206f766572666c6f8152607760f81b602082015260400192915050565b6000613d97603b83614114565b7f43616e6e6f742073657420612070726f787920696d706c656d656e746174696f81527f6e20746f2061206e6f6e2d636f6e747261637420616464726573730000000000602082015260400192915050565b6000613df6602a83614114565b7f4d61726b65743a20436f75706f6e20617070726f766520746f20746865207a65815269726f206164647265737360b01b602082015260400192915050565b6000613e42602d83614114565b7f4d61726b65743a20436f75706f6e207472616e736665722066726f6d2074686581526c207a65726f206164647265737360981b602082015260400192915050565b6000613e91601b83614114565b7f4d61726b65743a20546f6f206561726c7920746f2072656465656d0000000000815260200192915050565b613c0a816108a2565b613c0a81614150565b6000613edb8284613c33565b50602001919050565b60006109028284613c3f565b6000613efc8286613c3f565b9150613f088285613c22565b600282019150613f188284613c3f565b95945050505050565b602081016108a88284613c10565b60608101613f3d8286613c01565b613f4a6020830185613c10565b6125946040830184613ebd565b60408101613f658285613c01565b6109026020830184613ebd565b60608101613f3d8286613c10565b60408101613f658285613c10565b602081016108a88284613c19565b602081016108a88284613c6e565b602081016108a88284613c77565b60408101613f658285613c77565b602080825281016109028184613c89565b602080825281016108a881613cc1565b602080825281016108a881613cfa565b602080825281016108a881613d47565b602080825281016108a881613d8a565b602080825281016108a881613de9565b602080825281016108a881613e35565b602080825281016108a881613e84565b602081016108a88284613ebd565b60408101613f658285613ebd565b608081016140718287613ebd565b61407e6020830186613ebd565b61408b6040830185613c80565b613f186060830184613ebd565b606081016140a68286613ebd565b613f4a6020830185613ebd565b608081016140c18287613ebd565b6140ce6020830186613ebd565b61408b6040830185613ebd565b602081016108a88284613ec6565b60405181810167ffffffffffffffff8111828210171561410857600080fd5b604052919050565b5190565b90815260200190565b60006108a882614144565b151590565b6001600160f01b03191690565b806108c1816141b4565b6001600160a01b031690565b60ff1690565b60006108a8825b60006108a88261411d565b60006108a88261413a565b60006108a8826108a2565b60005b83811015614199578181015183820152602001614181565b838111156124b35750506000910152565b601f01601f191690565b600381106127e657fe5b6141c78161411d565b81146127e657600080fd5b6141c781614128565b600381106127e657600080fd5b6141c7816108a256fe4d61726b65743a20496e73756666696369656e7420636f75706f6e2062616c616e6365426f6e64696e673a20696e73756666696369656e74207374616765642062616c616e63654d61726b65743a20496e73756666696369656e7420636f75706f6e20617070726f76616c426f6e64696e673a20696e73756666696369656e7420746f74616c20626f6e646564436f6d7074726f6c6c65723a206e6f7420656e6f756768206f75747374616e64696e672064656274436f6d7074726f6c6c65723a206e6f7420656e6f7567682072656465656d61626c652062616c616e6365a365627a7a72315820a8eae0af9b60ab3276a657f59b141670b1a7569a15404e37c6d52863b0bc66366c6578706572696d656e74616cf564736f6c63430005110040",
  "source": "pragma solidity ^0.5.17;\npragma experimental ABIEncoderV2;\n\nimport \"@openzeppelin/contracts/math/SafeMath.sol\";\nimport \"./Market.sol\";\nimport \"./Regulator.sol\";\nimport \"./Bonding.sol\";\nimport \"./Govern.sol\";\nimport \"../Constants.sol\";\n\ncontract Implementation is State, Bonding, Market, Regulator, Govern {\n    using SafeMath for uint256;\n\n    event Advance(uint256 indexed epoch, uint256 block, uint256 timestamp);\n    event Incentivization(address indexed account, uint256 amount);\n\n    function initialize() public initializer {\n        // Dev rewards\n        incentivize(msg.sender, 5e17); // 0.5 ESB\n    }\n\n    function advance() external {\n        incentivize(msg.sender, Constants.getAdvanceIncentive());\n\n        Bonding.step();\n        Regulator.step();\n        Market.step();\n\n        emit Advance(epoch(), block.number, block.timestamp);\n    }\n\n    function incentivize(address account, uint256 amount) private {\n        mintToAccount(account, amount);\n        emit Incentivization(account, amount);\n    }\n}\n",
  "sourcePath": "/Users/mehranhydary/Desktop/dev/bitcoin/protocol/contracts/dao/Implementation.sol",
  "compiler": {
    "name": "solc",
    "version": "0.5.17+commit.d19bba13.Emscripten.clang"
  },
  "schemaVersion": "3.2.5",
  "updatedAt": "2021-01-06T03:36:30.184Z",
  "devdoc": {
    "methods": {}
  },
  "userdoc": {
    "methods": {
      "balanceOfStaged(address)": {
        "notice": "Account"
      },
      "bitcoin()": {
        "notice": "Global"
      },
      "epoch()": {
        "notice": "Epoch"
      },
      "name()": {
        "notice": "ERC20 Interface"
      },
      "recordedVote(address,address)": {
        "notice": "Governance"
      },
      "transfer(address,uint256)": {
        "notice": "ERC20 Interface"
      }
    }
  }
}