{
  "contractName": "Pool",
  "abi": [
    {
      "inputs": [
        {
          "internalType": "address",
          "name": "bitcoin",
          "type": "address"
        },
        {
          "internalType": "address",
          "name": "univ2",
          "type": "address"
        }
      ],
      "payable": false,
      "stateMutability": "nonpayable",
      "type": "constructor"
    },
    {
      "anonymous": false,
      "inputs": [
        {
          "indexed": true,
          "internalType": "address",
          "name": "account",
          "type": "address"
        },
        {
          "indexed": false,
          "internalType": "uint256",
          "name": "start",
          "type": "uint256"
        },
        {
          "indexed": false,
          "internalType": "uint256",
          "name": "value",
          "type": "uint256"
        }
      ],
      "name": "Bond",
      "type": "event"
    },
    {
      "anonymous": false,
      "inputs": [
        {
          "indexed": true,
          "internalType": "address",
          "name": "account",
          "type": "address"
        },
        {
          "indexed": false,
          "internalType": "uint256",
          "name": "value",
          "type": "uint256"
        }
      ],
      "name": "Claim",
      "type": "event"
    },
    {
      "anonymous": false,
      "inputs": [
        {
          "indexed": true,
          "internalType": "address",
          "name": "account",
          "type": "address"
        },
        {
          "indexed": false,
          "internalType": "uint256",
          "name": "value",
          "type": "uint256"
        }
      ],
      "name": "Deposit",
      "type": "event"
    },
    {
      "anonymous": false,
      "inputs": [
        {
          "indexed": true,
          "internalType": "address",
          "name": "account",
          "type": "address"
        },
        {
          "indexed": false,
          "internalType": "uint256",
          "name": "value",
          "type": "uint256"
        },
        {
          "indexed": false,
          "internalType": "uint256",
          "name": "lessSBTC",
          "type": "uint256"
        },
        {
          "indexed": false,
          "internalType": "uint256",
          "name": "newUniv2",
          "type": "uint256"
        }
      ],
      "name": "Provide",
      "type": "event"
    },
    {
      "anonymous": false,
      "inputs": [
        {
          "indexed": true,
          "internalType": "address",
          "name": "account",
          "type": "address"
        },
        {
          "indexed": false,
          "internalType": "uint256",
          "name": "start",
          "type": "uint256"
        },
        {
          "indexed": false,
          "internalType": "uint256",
          "name": "value",
          "type": "uint256"
        },
        {
          "indexed": false,
          "internalType": "uint256",
          "name": "newClaimable",
          "type": "uint256"
        }
      ],
      "name": "Unbond",
      "type": "event"
    },
    {
      "anonymous": false,
      "inputs": [
        {
          "indexed": true,
          "internalType": "address",
          "name": "account",
          "type": "address"
        },
        {
          "indexed": false,
          "internalType": "uint256",
          "name": "value",
          "type": "uint256"
        }
      ],
      "name": "Withdraw",
      "type": "event"
    },
    {
      "constant": true,
      "inputs": [
        {
          "internalType": "address",
          "name": "account",
          "type": "address"
        }
      ],
      "name": "balanceOfBonded",
      "outputs": [
        {
          "internalType": "uint256",
          "name": "",
          "type": "uint256"
        }
      ],
      "payable": false,
      "stateMutability": "view",
      "type": "function"
    },
    {
      "constant": true,
      "inputs": [
        {
          "internalType": "address",
          "name": "account",
          "type": "address"
        }
      ],
      "name": "balanceOfClaimable",
      "outputs": [
        {
          "internalType": "uint256",
          "name": "",
          "type": "uint256"
        }
      ],
      "payable": false,
      "stateMutability": "view",
      "type": "function"
    },
    {
      "constant": true,
      "inputs": [
        {
          "internalType": "address",
          "name": "account",
          "type": "address"
        }
      ],
      "name": "balanceOfPhantom",
      "outputs": [
        {
          "internalType": "uint256",
          "name": "",
          "type": "uint256"
        }
      ],
      "payable": false,
      "stateMutability": "view",
      "type": "function"
    },
    {
      "constant": true,
      "inputs": [
        {
          "internalType": "address",
          "name": "account",
          "type": "address"
        },
        {
          "internalType": "contract IBitcoin",
          "name": "bitcoin",
          "type": "address"
        }
      ],
      "name": "balanceOfRewarded",
      "outputs": [
        {
          "internalType": "uint256",
          "name": "",
          "type": "uint256"
        }
      ],
      "payable": false,
      "stateMutability": "view",
      "type": "function"
    },
    {
      "constant": true,
      "inputs": [
        {
          "internalType": "address",
          "name": "account",
          "type": "address"
        }
      ],
      "name": "balanceOfStaged",
      "outputs": [
        {
          "internalType": "uint256",
          "name": "",
          "type": "uint256"
        }
      ],
      "payable": false,
      "stateMutability": "view",
      "type": "function"
    },
    {
      "constant": true,
      "inputs": [],
      "name": "bitcoin",
      "outputs": [
        {
          "internalType": "contract IBitcoin",
          "name": "",
          "type": "address"
        }
      ],
      "payable": false,
      "stateMutability": "view",
      "type": "function"
    },
    {
      "constant": true,
      "inputs": [],
      "name": "dao",
      "outputs": [
        {
          "internalType": "contract IDAO",
          "name": "",
          "type": "address"
        }
      ],
      "payable": false,
      "stateMutability": "view",
      "type": "function"
    },
    {
      "constant": true,
      "inputs": [],
      "name": "paused",
      "outputs": [
        {
          "internalType": "bool",
          "name": "",
          "type": "bool"
        }
      ],
      "payable": false,
      "stateMutability": "view",
      "type": "function"
    },
    {
      "constant": true,
      "inputs": [],
      "name": "sBTC",
      "outputs": [
        {
          "internalType": "address",
          "name": "",
          "type": "address"
        }
      ],
      "payable": false,
      "stateMutability": "view",
      "type": "function"
    },
    {
      "constant": true,
      "inputs": [
        {
          "internalType": "address",
          "name": "account",
          "type": "address"
        },
        {
          "internalType": "uint256",
          "name": "epoch",
          "type": "uint256"
        }
      ],
      "name": "statusOf",
      "outputs": [
        {
          "internalType": "enum PoolAccount.Status",
          "name": "",
          "type": "uint8"
        }
      ],
      "payable": false,
      "stateMutability": "view",
      "type": "function"
    },
    {
      "constant": true,
      "inputs": [],
      "name": "totalBonded",
      "outputs": [
        {
          "internalType": "uint256",
          "name": "",
          "type": "uint256"
        }
      ],
      "payable": false,
      "stateMutability": "view",
      "type": "function"
    },
    {
      "constant": true,
      "inputs": [],
      "name": "totalClaimable",
      "outputs": [
        {
          "internalType": "uint256",
          "name": "",
          "type": "uint256"
        }
      ],
      "payable": false,
      "stateMutability": "view",
      "type": "function"
    },
    {
      "constant": true,
      "inputs": [],
      "name": "totalPhantom",
      "outputs": [
        {
          "internalType": "uint256",
          "name": "",
          "type": "uint256"
        }
      ],
      "payable": false,
      "stateMutability": "view",
      "type": "function"
    },
    {
      "constant": true,
      "inputs": [
        {
          "internalType": "contract IBitcoin",
          "name": "bitcoin",
          "type": "address"
        }
      ],
      "name": "totalRewarded",
      "outputs": [
        {
          "internalType": "uint256",
          "name": "",
          "type": "uint256"
        }
      ],
      "payable": false,
      "stateMutability": "view",
      "type": "function"
    },
    {
      "constant": true,
      "inputs": [],
      "name": "totalStaged",
      "outputs": [
        {
          "internalType": "uint256",
          "name": "",
          "type": "uint256"
        }
      ],
      "payable": false,
      "stateMutability": "view",
      "type": "function"
    },
    {
      "constant": true,
      "inputs": [],
      "name": "univ2",
      "outputs": [
        {
          "internalType": "contract IERC20",
          "name": "",
          "type": "address"
        }
      ],
      "payable": false,
      "stateMutability": "view",
      "type": "function"
    },
    {
      "constant": false,
      "inputs": [
        {
          "internalType": "uint256",
          "name": "value",
          "type": "uint256"
        }
      ],
      "name": "deposit",
      "outputs": [],
      "payable": false,
      "stateMutability": "nonpayable",
      "type": "function"
    },
    {
      "constant": false,
      "inputs": [
        {
          "internalType": "uint256",
          "name": "value",
          "type": "uint256"
        }
      ],
      "name": "withdraw",
      "outputs": [],
      "payable": false,
      "stateMutability": "nonpayable",
      "type": "function"
    },
    {
      "constant": false,
      "inputs": [
        {
          "internalType": "uint256",
          "name": "value",
          "type": "uint256"
        }
      ],
      "name": "claim",
      "outputs": [],
      "payable": false,
      "stateMutability": "nonpayable",
      "type": "function"
    },
    {
      "constant": false,
      "inputs": [
        {
          "internalType": "uint256",
          "name": "value",
          "type": "uint256"
        }
      ],
      "name": "bond",
      "outputs": [],
      "payable": false,
      "stateMutability": "nonpayable",
      "type": "function"
    },
    {
      "constant": false,
      "inputs": [
        {
          "internalType": "uint256",
          "name": "value",
          "type": "uint256"
        }
      ],
      "name": "unbond",
      "outputs": [],
      "payable": false,
      "stateMutability": "nonpayable",
      "type": "function"
    },
    {
      "constant": false,
      "inputs": [
        {
          "internalType": "uint256",
          "name": "value",
          "type": "uint256"
        }
      ],
      "name": "provide",
      "outputs": [],
      "payable": false,
      "stateMutability": "nonpayable",
      "type": "function"
    },
    {
      "constant": false,
      "inputs": [
        {
          "internalType": "address",
          "name": "token",
          "type": "address"
        },
        {
          "internalType": "uint256",
          "name": "value",
          "type": "uint256"
        }
      ],
      "name": "emergencyWithdraw",
      "outputs": [],
      "payable": false,
      "stateMutability": "nonpayable",
      "type": "function"
    },
    {
      "constant": false,
      "inputs": [],
      "name": "emergencyPause",
      "outputs": [],
      "payable": false,
      "stateMutability": "nonpayable",
      "type": "function"
    }
  ],
  "bytecode": "0x60806040523480156200001157600080fd5b50604051620022ce380380620022ce833981016040819052620000349162000084565b600480546001600160a01b03199081163317909155600580546001600160a01b0394851690831617905560068054929093169116179055620000ef565b80516200007e81620000d5565b92915050565b600080604083850312156200009857600080fd5b6000620000a6858562000071565b9250506020620000b98582860162000071565b9150509250929050565b60006001600160a01b0382166200007e565b620000e081620000c3565b8114620000ec57600080fd5b50565b6121cf80620000ff6000396000f3fe608060405234801561001057600080fd5b50600436106101585760003560e01c80637298d36e116100c3578063ced350701161007c578063ced35070146102b0578063cf023779146102b8578063e043f56f146102c0578063e0cf7285146102d5578063eba787c4146102dd578063f384fe76146102f057610158565b80637298d36e14610249578063825ad6071461025157806386cf9f141461026457806395ccea67146102775780639940686e1461028a578063b6b55f251461029d57610158565b80634162169f116101155780634162169f146101e757806344d96e95146101fc5780634838ed191461020457806351858e271461020c5780635aba0dea146102145780635c975abb1461023457610158565b80631667eb171461015d57806327de9e321461018657806329f32ed41461019b5780632e1a7d4d146101ae5780632e2ebe06146101c1578063379607f5146101d4575b600080fd5b61017061016b366004611a0f565b610303565b60405161017d9190611fb8565b60405180910390f35b610199610194366004611b28565b610325565b005b6101706101a9366004611a0f565b6104f7565b6101996101bc366004611b28565b610515565b6101996101cf366004611b28565b6106b5565b6101996101e2366004611b28565b610886565b6101ef61097a565b60405161017d9190611f2b565b610170610989565b61017061098f565b610199610995565b610227610222366004611a6f565b6109c9565b60405161017d9190611f39565b61023c6109ff565b60405161017d9190611f1d565b6101ef610a08565b61017061025f366004611a0f565b610a17565b610170610272366004611a0f565b610a35565b610199610285366004611a6f565b610a50565b610199610298366004611b28565b610b03565b6101996102ab366004611b28565b610c3c565b6101ef610d24565b610170610d33565b6102c8610d39565b60405161017d9190611ebe565b610170610d48565b6101706102eb366004611a35565b610d4e565b6101706102fe366004611abd565b610de0565b6001600160a01b0381166000908152600860205260409020600101545b919050565b61032e33610e75565b600061033933610a17565b90506103706000821163141bdbdb60e21b7f696e73756666696369656e7420626f6e6465642062616c616e63650000000000610efa565b6005546000906103ae9083906103a29086906103969033906001600160a01b0316610d4e565b9063ffffffff610f5816565b9063ffffffff610f9216565b905060006103c3836103a286610396336104f7565b90506103cf3385610fd4565b6103d93383611031565b6103fc338560405180606001604052806021815260200161216c60219139611096565b61041f3382604051806060016040528060228152602001612129602291396110fe565b610427611166565b600480546040805163900cf0cf60e01b8152905133937f93530ac0ee8c50e696e13c5ac62355d0c0ba4bd943620d5bda1eb08b64ae7512936104d8936001936001600160a01b039092169263900cf0cf928282019260209290829003018186803b15801561049457600080fd5b505afa1580156104a8573d6000803e3d6000fd5b505050506040513d601f19601f820116820180604052506104cc9190810190611b46565b9063ffffffff61122c16565b86856040516104e993929190611fd4565b60405180910390a250505050565b6001600160a01b031660009081526008602052604090206003015490565b336105c060005b600480546040805163900cf0cf60e01b815290516105999387936001600160a01b03169263900cf0cf9281830192602092829003018186803b15801561056157600080fd5b505afa158015610575573d6000803e3d6000fd5b505050506040513d601f19601f820116820180604052506102229190810190611b46565b60028111156105a457fe5b1463141bdbdb60e21b692737ba10333937bd32b760b11b610efa565b60065460405163a9059cbb60e01b81526001600160a01b039091169063a9059cbb906105f29033908690600401611ef4565b602060405180830381600087803b15801561060c57600080fd5b505af1158015610620573d6000803e3d6000fd5b505050506040513d601f19601f820116820180604052506106449190810190611a9f565b50610668338360405180606001604052806021815260200161214b60219139611251565b610670611166565b336001600160a01b03167f884edad9ce6fa2440d8a54cc123490eb96d2768479d49ff9c7366125a9424364836040516106a99190611fb8565b60405180910390a25050565b336106c0600061051c565b6106e36106cb6109ff565b1563141bdbdb60e21b6514185d5cd95960d21b610efa565b61071f60006106f0610989565b1163141bdbdb60e21b7f696e73756666696369656e7420746f74616c20626f6e64656400000000000000610efa565b60055461076a9060009061073b906001600160a01b0316610de0565b1163141bdbdb60e21b7f696e73756666696369656e7420746f74616c2072657761726465640000000000610efa565b6005546107b79083906107879033906001600160a01b0316610d4e565b101563141bdbdb60e21b7f696e73756666696369656e742072657761726465642062616c616e6365000000610efa565b6000806107c3846112b1565b9150915060006107ed856104cc6107d8610d48565b6005546104cc906001600160a01b0316610de0565b9050600061080c6107fc610989565b6103a2848663ffffffff610f5816565b905061081833846114a7565b6108313361082c888463ffffffff61122c16565b61150c565b610839611166565b336001600160a01b03167fbe9d8078818a53534ce225882a00e0c6f709b5296c8a08c3a1f23f9ffd44838087868660405161087693929190611fd4565b60405180910390a2505050505050565b33610891600061051c565b60055460405163a9059cbb60e01b81526001600160a01b039091169063a9059cbb906108c39033908690600401611ef4565b602060405180830381600087803b1580156108dd57600080fd5b505af11580156108f1573d6000803e3d6000fd5b505050506040513d601f19601f820116820180604052506109159190810190611a9f565b50610939338360405180606001604052806024815260200161210560249139611571565b610941611166565b336001600160a01b03167f47cee97cb7acd717b3c0aa1435d004cd5b3c8c57d70dbceb4e4458bbd60e39d4836040516106a99190611fb8565b6004546001600160a01b031690565b60025490565b60015490565b6004546109bf906001600160a01b0316331463141bdbdb60e21b664e6f742064616f60c81b610efa565b6109c76115d9565b565b6001600160a01b0382166000908152600860205260408120600401548210156109f35760016109f6565b60005b90505b92915050565b60075460ff1690565b6006546001600160a01b031690565b6001600160a01b031660009081526008602052604090206002015490565b6001600160a01b031660009081526008602052604090205490565b600454610a7a906001600160a01b0316331463141bdbdb60e21b664e6f742064616f60c81b610efa565b6004805460405163a9059cbb60e01b81526001600160a01b038086169363a9059cbb93610aac93921691869101611f0f565b602060405180830381600087803b158015610ac657600080fd5b505af1158015610ada573d6000803e3d6000fd5b505050506040513d601f19601f82011682018060405250610afe9190810190611a9f565b505050565b610b0e6106cb6109ff565b610b1733610e75565b6000610b246107d8610d48565b90506000610b30610989565b15610b4557610b406107fc610989565b610b72565b600554610b5a906001600160a01b0316610de0565b15610b66576000610b72565b610b72836103966115e8565b9050610b7e33846114a7565b610b88338261150c565b610bab338460405180606001604052806021815260200161214b60219139611251565b610bb3611166565b600480546040805163900cf0cf60e01b8152905133937f3ae9ad26d7d47616d306d7757b947fe7b0f9a7c61a5f0dc784b0ddb6c7c40b5a93610c20936001936001600160a01b039092169263900cf0cf928282019260209290829003018186803b15801561049457600080fd5b85604051610c2f929190611fc6565b60405180910390a2505050565b33610c47600061051c565b610c526106cb6109ff565b6006546040516323b872dd60e01b81526001600160a01b03909116906323b872dd90610c8690339030908790600401611ecc565b602060405180830381600087803b158015610ca057600080fd5b505af1158015610cb4573d6000803e3d6000fd5b505050506040513d601f19601f82011682018060405250610cd89190810190611a9f565b50610ce33383610fd4565b610ceb611166565b336001600160a01b03167fe1fffcc4923d04b559f4d29a8bfc6cda04eb5b0d3c460751c2402c5c5cc9109c836040516106a99190611fb8565b6005546001600160a01b031690565b60005490565b6000610d436115ef565b905090565b60035490565b600080610d59610989565b905080610d6a5760009150506109f9565b6000610d80610d77610d48565b6104cc86610de0565b90506000610da1836103a2610d9489610a17565b859063ffffffff610f5816565b90506000610dae876104f7565b905080821115610dd357610dc8828263ffffffff61160716565b9450505050506109f9565b5060009695505050505050565b60006109f9610ded61098f565b6040516370a0823160e01b81526001600160a01b038516906370a0823190610e19903090600401611ebe565b60206040518083038186803b158015610e3157600080fd5b505afa158015610e45573d6000803e3d6000fd5b505050506040513d601f19601f82011682018060405250610e699190810190611b46565b9063ffffffff61160716565b600480546040805163900cf0cf60e01b81529051610ef79385936001600160a01b03169263900cf0cf9281830192602092829003018186803b158015610eba57600080fd5b505afa158015610ece573d6000803e3d6000fd5b505050506040513d601f19601f82011682018060405250610ef29190810190611b46565b611649565b50565b82610afe57610f0882611684565b6101d160f51b610f1783611684565b604051602001610f2993929190611e57565b60408051601f198184030181529082905262461bcd60e51b8252610f4f91600401611f47565b60405180910390fd5b600082610f67575060006109f9565b82820282848281610f7457fe5b04146109f65760405162461bcd60e51b8152600401610f4f90611f88565b60006109f683836040518060400160405280601a81526020017f536166654d6174683a206469766973696f6e206279207a65726f000000000000815250611704565b6001600160a01b038216600090815260086020526040902054610ffd908263ffffffff61122c16565b6001600160a01b0383166000908152600860205260408120919091555461102a908263ffffffff61122c16565b6000555050565b6001600160a01b03821660009081526008602052604090206001015461105d908263ffffffff61122c16565b6001600160a01b03831660009081526008602052604090206001908101919091555461108f908263ffffffff61122c16565b6001555050565b6001600160a01b0383166000908152600860205260409020600201546110c390838363ffffffff61173d16565b6001600160a01b0384166000908152600860205260409020600290810191909155546110f690838363ffffffff61173d16565b600255505050565b6001600160a01b03831660009081526008602052604090206003015461112b90838363ffffffff61173d16565b6001600160a01b03841660009081526008602052604090206003908101919091555461115e90838363ffffffff61173d16565b600355505050565b6109c761117c611174610989565b6104cc610d33565b6006546040516370a0823160e01b81526001600160a01b03909116906370a08231906111ac903090600401611ebe565b60206040518083038186803b1580156111c457600080fd5b505afa1580156111d8573d6000803e3d6000fd5b505050506040513d601f19601f820116820180604052506111fc9190810190611b46565b101563141bdbdb60e21b7f496e636f6e73697374656e7420554e492d56322062616c616e63657300000000610efa565b6000828201838110156109f65760405162461bcd60e51b8152600401610f4f90611f58565b6001600160a01b03831660009081526008602052604090205461127b90838363ffffffff61173d16565b6001600160a01b038416600090815260086020526040812091909155546112a990838363ffffffff61173d16565b600055505050565b6005546000908190819081906001600160a01b03166112ce610d39565b915091506000806112df8484611769565b9150915060008260001480156112f3575081155b61130757611302888484611855565b611309565b875b60065460405163a9059cbb60e01b81529192506001600160a01b03908116919087169063a9059cbb906113429084908d90600401611f0f565b602060405180830381600087803b15801561135c57600080fd5b505af1158015611370573d6000803e3d6000fd5b505050506040513d601f19601f820116820180604052506113949190810190611a9f565b506040516323b872dd60e01b81526001600160a01b038616906323b872dd906113c590339085908790600401611ecc565b602060405180830381600087803b1580156113df57600080fd5b505af11580156113f3573d6000803e3d6000fd5b505050506040513d601f19601f820116820180604052506114179190810190611a9f565b506040516335313c2160e11b815282906001600160a01b03831690636a62784290611446903090600401611ebe565b602060405180830381600087803b15801561146057600080fd5b505af1158015611474573d6000803e3d6000fd5b505050506040513d601f19601f820116820180604052506114989190810190611b46565b97509750505050505050915091565b6001600160a01b0382166000908152600860205260409020600201546114d3908263ffffffff61122c16565b6001600160a01b038316600090815260086020526040902060029081019190915554611505908263ffffffff61122c16565b6002555050565b6001600160a01b038216600090815260086020526040902060030154611538908263ffffffff61122c16565b6001600160a01b03831660009081526008602052604090206003908101919091555461156a908263ffffffff61122c16565b6003555050565b6001600160a01b03831660009081526008602052604090206001015461159e90838363ffffffff61173d16565b6001600160a01b0384166000908152600860205260409020600190810191909155546115d190838363ffffffff61173d16565b600155505050565b6007805460ff19166001179055565b620f424090565b73fe18be6b3bd88a2d2a7f928d00292e7a9963cfc690565b60006109f683836040518060400160405280601e81526020017f536166654d6174683a207375627472616374696f6e206f766572666c6f77000081525061173d565b6116616116546118c3565b829063ffffffff61122c16565b6001600160a01b0390921660009081526008602052604090206004019190915550565b606080826040516020016116989190611e42565b60408051601f19818403018152919052905060205b80156116ed578151600019909101908290829081106116c857fe5b01602001516001600160f81b031916156116e85760010181529050610320565b6116ad565b505060408051600081526020810190915292915050565b600081836117255760405162461bcd60e51b8152600401610f4f9190611f47565b50600083858161173157fe5b049150505b9392505050565b600081848411156117615760405162461bcd60e51b8152600401610f4f9190611f47565b505050900390565b600080600061177885856118c8565b50905060008061179d735c69bee701ef814a2b6a3edd4b1652cb9cc5aa6f8888611952565b6001600160a01b0316630902f1ac6040518163ffffffff1660e01b815260040160606040518083038186803b1580156117d557600080fd5b505afa1580156117e9573d6000803e3d6000fd5b505050506040513d601f19601f8201168201806040525061180d9190810190611adb565b506001600160701b031691506001600160701b03169150826001600160a01b0316876001600160a01b031614611844578082611847565b81815b909890975095505050505050565b60008084116118765760405162461bcd60e51b8152600401610f4f90611f98565b6000831180156118865750600082115b6118a25760405162461bcd60e51b8152600401610f4f90611f78565b826118b3858463ffffffff610f5816565b816118ba57fe5b04949350505050565b600890565b600080826001600160a01b0316846001600160a01b031614156118fd5760405162461bcd60e51b8152600401610f4f90611f68565b826001600160a01b0316846001600160a01b03161061191d578284611920565b83835b90925090506001600160a01b03821661194b5760405162461bcd60e51b8152600401610f4f90611fa8565b9250929050565b600080600061196185856118c8565b91509150858282604051602001611979929190611e1c565b604051602081830303815290604052805190602001206040516020016119a0929190611e88565b60408051601f1981840301815291905280516020909101209695505050505050565b80356109f9816120c3565b80516109f9816120d7565b80356109f9816120e0565b80516109f9816120e9565b80356109f9816120f2565b80516109f9816120f2565b80516109f9816120fb565b600060208284031215611a2157600080fd5b6000611a2d84846119c2565b949350505050565b60008060408385031215611a4857600080fd5b6000611a5485856119c2565b9250506020611a65858286016119d8565b9150509250929050565b60008060408385031215611a8257600080fd5b6000611a8e85856119c2565b9250506020611a65858286016119ee565b600060208284031215611ab157600080fd5b6000611a2d84846119cd565b600060208284031215611acf57600080fd5b6000611a2d84846119d8565b600080600060608486031215611af057600080fd5b6000611afc86866119e3565b9350506020611b0d868287016119e3565b9250506040611b1e86828701611a04565b9150509250925092565b600060208284031215611b3a57600080fd5b6000611a2d84846119ee565b600060208284031215611b5857600080fd5b6000611a2d84846119f9565b611b6d81612052565b82525050565b611b6d81611ffc565b611b6d611b8882611ffc565b612098565b611b6d81612007565b611b6d611ba28261200c565b612019565b611b6d611ba282612019565b6000611bbe82611fef565b611bc88185610320565b9350611bd8818560208601612068565b9290920192915050565b611b6d8161201c565b611b6d8161205d565b6000611bff82611fef565b611c098185611ff3565b9350611c19818560208601612068565b611c22816120a9565b9093019392505050565b6000611c39601b83611ff3565b7f536166654d6174683a206164646974696f6e206f766572666c6f770000000000815260200192915050565b6000611c72602583611ff3565b7f556e697377617056324c6962726172793a204944454e544943414c5f41444452815264455353455360d81b602082015260400192915050565b6000611cb9602083610320565b7f96e8ac4277198ff8b6f785478aa9a39f403cb768dd02cbee326c3e7da348845f815260200192915050565b6000611cf2602883611ff3565b7f556e697377617056324c6962726172793a20494e53554646494349454e545f4c815267495155494449545960c01b602082015260400192915050565b6000611d3c600183610320565b6001600160f81b0319815260010192915050565b6000611d5d602183611ff3565b7f536166654d6174683a206d756c7469706c69636174696f6e206f766572666c6f8152607760f81b602082015260400192915050565b6000611da0602583611ff3565b7f556e697377617056324c6962726172793a20494e53554646494349454e545f418152641353d5539560da1b602082015260400192915050565b6000611de7601e83611ff3565b7f556e697377617056324c6962726172793a205a45524f5f414444524553530000815260200192915050565b611b6d81612019565b6000611e288285611b7c565b601482019150611e388284611b7c565b5060140192915050565b6000611e4e8284611ba7565b50602001919050565b6000611e638286611bb3565b9150611e6f8285611b96565b600282019150611e7f8284611bb3565b95945050505050565b6000611e9382611d2f565b9150611e9f8285611b7c565b601482019150611eaf8284611ba7565b602082019150611a2d82611cac565b602081016109f98284611b73565b60608101611eda8286611b64565b611ee76020830185611b73565b611a2d6040830184611e13565b60408101611f028285611b64565b6117366020830184611e13565b60408101611f028285611b73565b602081016109f98284611b8d565b602081016109f98284611be2565b602081016109f98284611beb565b602080825281016109f68184611bf4565b602080825281016109f981611c2c565b602080825281016109f981611c65565b602080825281016109f981611ce5565b602080825281016109f981611d50565b602080825281016109f981611d93565b602080825281016109f981611dda565b602081016109f98284611e13565b60408101611f028285611e13565b60608101611fe28286611e13565b611ee76020830185611e13565b5190565b90815260200190565b60006109f98261203d565b151590565b6001600160f01b03191690565b90565b60006109f982611ffc565b80610320816120b9565b6001600160701b031690565b6001600160a01b031690565b63ffffffff1690565b60006109f98261201c565b60006109f982612027565b60005b8381101561208357818101518382015260200161206b565b83811115612092576000848401525b50505050565b60006109f98260006109f9826120b3565b601f01601f191690565b60601b90565b60038110610ef757fe5b6120cc81611ffc565b8114610ef757600080fd5b6120cc81612007565b6120cc8161201c565b6120cc81612031565b6120cc81612019565b6120cc8161204956fe506f6f6c3a20696e73756666696369656e7420636c61696d61626c652062616c616e6365506f6f6c3a20696e73756666696369656e74207068616e746f6d2062616c616e6365506f6f6c3a20696e73756666696369656e74207374616765642062616c616e6365506f6f6c3a20696e73756666696369656e7420626f6e6465642062616c616e6365a365627a7a72315820874e5a4bbf75e2d549ae2c5758f9b9368c487463b7fdf6acf5f0a1a8b416145f6c6578706572696d656e74616cf564736f6c63430005110040",
  "source": "pragma solidity ^0.5.17;\npragma experimental ABIEncoderV2;\n\nimport \"@openzeppelin/contracts/math/SafeMath.sol\";\nimport \"@openzeppelin/contracts/token/ERC20/IERC20.sol\";\nimport \"../external/Require.sol\";\nimport \"../Constants.sol\";\nimport \"./PoolSetters.sol\";\nimport \"./IDAO.sol\";\nimport \"../external/UniswapV2Library.sol\";\n\ncontract Pool is PoolSetters {\n    using SafeMath for uint256;\n\n    constructor(address bitcoin, address univ2) public {\n        _state.provider.dao = IDAO(msg.sender);\n        _state.provider.bitcoin = IBitcoin(bitcoin);\n        _state.provider.univ2 = IERC20(univ2);\n    }\n\n    address private constant UNISWAP_FACTORY =\n        address(0x5C69bEe701ef814a2B6a3EDD4B1652CB9cc5aA6f);\n\n    function addLiquidity(uint256 bitcoinAmount)\n        internal\n        returns (uint256, uint256)\n    {\n        (address bitcoin, address sBTC) =\n            (address(_state.provider.bitcoin), sBTC());\n        (uint256 reserveA, uint256 reserveB) = getReserves(bitcoin, sBTC);\n\n        uint256 sBTCAmount =\n            (reserveA == 0 && reserveB == 0)\n                ? bitcoinAmount\n                : UniswapV2Library.quote(bitcoinAmount, reserveA, reserveB);\n\n        address pair = address(_state.provider.univ2);\n        IERC20(bitcoin).transfer(pair, bitcoinAmount);\n        IERC20(sBTC).transferFrom(msg.sender, pair, sBTCAmount);\n        return (sBTCAmount, IUniswapV2Pair(pair).mint(address(this)));\n    }\n\n    // overridable for testing\n    function getReserves(address tokenA, address tokenB)\n        internal\n        view\n        returns (uint256 reserveA, uint256 reserveB)\n    {\n        (address token0, ) = UniswapV2Library.sortTokens(tokenA, tokenB);\n        (uint256 reserve0, uint256 reserve1, ) =\n            IUniswapV2Pair(\n                UniswapV2Library.pairFor(UNISWAP_FACTORY, tokenA, tokenB)\n            )\n                .getReserves();\n        (reserveA, reserveB) = tokenA == token0\n            ? (reserve0, reserve1)\n            : (reserve1, reserve0);\n    }\n\n    bytes32 private constant FILE = \"Pool\";\n\n    event Deposit(address indexed account, uint256 value);\n    event Withdraw(address indexed account, uint256 value);\n    event Claim(address indexed account, uint256 value);\n    event Bond(address indexed account, uint256 start, uint256 value);\n    event Unbond(\n        address indexed account,\n        uint256 start,\n        uint256 value,\n        uint256 newClaimable\n    );\n    event Provide(\n        address indexed account,\n        uint256 value,\n        uint256 lessSBTC,\n        uint256 newUniv2\n    );\n\n    function deposit(uint256 value) external onlyFrozen(msg.sender) notPaused {\n        _state.provider.univ2.transferFrom(msg.sender, address(this), value);\n        incrementBalanceOfStaged(msg.sender, value);\n\n        balanceCheck();\n\n        emit Deposit(msg.sender, value);\n    }\n\n    function withdraw(uint256 value) external onlyFrozen(msg.sender) {\n        _state.provider.univ2.transfer(msg.sender, value);\n        decrementBalanceOfStaged(\n            msg.sender,\n            value,\n            \"Pool: insufficient staged balance\"\n        );\n\n        balanceCheck();\n\n        emit Withdraw(msg.sender, value);\n    }\n\n    function claim(uint256 value) external onlyFrozen(msg.sender) {\n        _state.provider.bitcoin.transfer(msg.sender, value);\n        decrementBalanceOfClaimable(\n            msg.sender,\n            value,\n            \"Pool: insufficient claimable balance\"\n        );\n\n        balanceCheck();\n\n        emit Claim(msg.sender, value);\n    }\n\n    function unfreeze(address account) internal {\n        super.unfreeze(account, _state.provider.dao.epoch());\n    }\n\n    function bond(uint256 value) external notPaused {\n        unfreeze(msg.sender);\n\n        uint256 totalRewardedWithPhantom =\n            totalRewarded(_state.provider.bitcoin).add(totalPhantom());\n        uint256 newPhantom =\n            totalBonded() == 0\n                ? totalRewarded(_state.provider.bitcoin) == 0\n                    ? Constants.getInitialStakeMultiple().mul(value)\n                    : 0\n                : totalRewardedWithPhantom.mul(value).div(totalBonded());\n\n        incrementBalanceOfBonded(msg.sender, value);\n        incrementBalanceOfPhantom(msg.sender, newPhantom);\n        decrementBalanceOfStaged(\n            msg.sender,\n            value,\n            \"Pool: insufficient staged balance\"\n        );\n\n        balanceCheck();\n\n        emit Bond(msg.sender, _state.provider.dao.epoch().add(1), value);\n    }\n\n    function unbond(uint256 value) external {\n        unfreeze(msg.sender);\n\n        uint256 balanceOfBonded = balanceOfBonded(msg.sender);\n        Require.that(balanceOfBonded > 0, FILE, \"insufficient bonded balance\");\n\n        uint256 newClaimable =\n            balanceOfRewarded(msg.sender, _state.provider.bitcoin)\n                .mul(value)\n                .div(balanceOfBonded);\n        uint256 lessPhantom =\n            balanceOfPhantom(msg.sender).mul(value).div(balanceOfBonded);\n\n        incrementBalanceOfStaged(msg.sender, value);\n        incrementBalanceOfClaimable(msg.sender, newClaimable);\n        decrementBalanceOfBonded(\n            msg.sender,\n            value,\n            \"Pool: insufficient bonded balance\"\n        );\n        decrementBalanceOfPhantom(\n            msg.sender,\n            lessPhantom,\n            \"Pool: insufficient phantom balance\"\n        );\n\n        balanceCheck();\n\n        emit Unbond(\n            msg.sender,\n            _state.provider.dao.epoch().add(1),\n            value,\n            newClaimable\n        );\n    }\n\n    function provide(uint256 value) external onlyFrozen(msg.sender) notPaused {\n        Require.that(totalBonded() > 0, FILE, \"insufficient total bonded\");\n\n        Require.that(\n            totalRewarded(_state.provider.bitcoin) > 0,\n            FILE,\n            \"insufficient total rewarded\"\n        );\n\n        Require.that(\n            balanceOfRewarded(msg.sender, _state.provider.bitcoin) >= value,\n            FILE,\n            \"insufficient rewarded balance\"\n        );\n\n        (uint256 lessSBTC, uint256 newUniv2) = addLiquidity(value);\n\n        uint256 totalRewardedWithPhantom =\n            totalRewarded(_state.provider.bitcoin).add(totalPhantom()).add(\n                value\n            );\n        uint256 newPhantomFromBonded =\n            totalRewardedWithPhantom.mul(newUniv2).div(totalBonded());\n\n        incrementBalanceOfBonded(msg.sender, newUniv2);\n        incrementBalanceOfPhantom(msg.sender, value.add(newPhantomFromBonded));\n\n        balanceCheck();\n\n        emit Provide(msg.sender, value, lessSBTC, newUniv2);\n    }\n\n    function emergencyWithdraw(address token, uint256 value) external onlyDao {\n        IERC20(token).transfer(address(_state.provider.dao), value);\n    }\n\n    function emergencyPause() external onlyDao {\n        pause();\n    }\n\n    function balanceCheck() private {\n        Require.that(\n            _state.provider.univ2.balanceOf(address(this)) >=\n                totalStaged().add(totalBonded()),\n            FILE,\n            \"Inconsistent UNI-V2 balances\"\n        );\n    }\n\n    modifier onlyFrozen(address account) {\n        Require.that(\n            statusOf(account, _state.provider.dao.epoch()) ==\n                PoolAccount.Status.Frozen,\n            FILE,\n            \"Not frozen\"\n        );\n\n        _;\n    }\n\n    modifier onlyDao() {\n        Require.that(\n            msg.sender == address(_state.provider.dao),\n            FILE,\n            \"Not dao\"\n        );\n\n        _;\n    }\n\n    modifier notPaused() {\n        Require.that(!paused(), FILE, \"Paused\");\n\n        _;\n    }\n}\n",
  "sourcePath": "/Users/mehranhydary/Desktop/dev/bitcoin/protocol/contracts/oracle/Pool.sol",
  "compiler": {
    "name": "solc",
    "version": "0.5.17+commit.d19bba13.Emscripten.clang"
  },
  "schemaVersion": "3.2.5",
  "updatedAt": "2021-01-06T03:36:30.519Z",
  "devdoc": {
    "methods": {}
  },
  "userdoc": {
    "methods": {
      "balanceOfStaged(address)": {
        "notice": "Account"
      },
      "sBTC()": {
        "notice": "Global"
      }
    }
  }
}